{
  "contractName": "CanWorkJob",
  "abi": [
    {
      "constant": true,
      "inputs": [],
      "name": "priceOracle",
      "outputs": [
        {
          "name": "",
          "type": "address"
        }
      ],
      "payable": false,
      "stateMutability": "view",
      "type": "function"
    },
    {
      "constant": true,
      "inputs": [
        {
          "name": "_escrowId",
          "type": "uint256"
        }
      ],
      "name": "getEscrow",
      "outputs": [
        {
          "name": "client",
          "type": "address"
        },
        {
          "name": "provider",
          "type": "address"
        },
        {
          "name": "amount",
          "type": "uint256"
        },
        {
          "name": "totalValueDai",
          "type": "uint256"
        },
        {
          "name": "status",
          "type": "uint8"
        },
        {
          "name": "createdAt",
          "type": "uint256"
        },
        {
          "name": "closedAt",
          "type": "uint256"
        }
      ],
      "payable": false,
      "stateMutability": "view",
      "type": "function"
    },
    {
      "constant": true,
      "inputs": [],
      "name": "ROLE_OWNER",
      "outputs": [
        {
          "name": "",
          "type": "string"
        }
      ],
      "payable": false,
      "stateMutability": "view",
      "type": "function"
    },
    {
      "constant": true,
      "inputs": [
        {
          "name": "contractName",
          "type": "string"
        },
        {
          "name": "migrationId",
          "type": "string"
        }
      ],
      "name": "isMigrated",
      "outputs": [
        {
          "name": "",
          "type": "bool"
        }
      ],
      "payable": false,
      "stateMutability": "view",
      "type": "function"
    },
    {
      "constant": true,
      "inputs": [],
      "name": "ROLE_ADMIN",
      "outputs": [
        {
          "name": "",
          "type": "string"
        }
      ],
      "payable": false,
      "stateMutability": "view",
      "type": "function"
    },
    {
      "constant": true,
      "inputs": [
        {
          "name": "_escrowId",
          "type": "uint256"
        }
      ],
      "name": "getEscrowPayments",
      "outputs": [
        {
          "name": "amount",
          "type": "uint256"
        },
        {
          "name": "totalValueDai",
          "type": "uint256"
        },
        {
          "name": "payoutAmount",
          "type": "uint256"
        },
        {
          "name": "paidToDappAmount",
          "type": "uint256"
        },
        {
          "name": "paidToProviderAmount",
          "type": "uint256"
        },
        {
          "name": "paidToClientAmount",
          "type": "uint256"
        },
        {
          "name": "paidToArbiterAmount",
          "type": "uint256"
        }
      ],
      "payable": false,
      "stateMutability": "view",
      "type": "function"
    },
    {
      "anonymous": false,
      "inputs": [
        {
          "indexed": true,
          "name": "dapp",
          "type": "address"
        },
        {
          "indexed": true,
          "name": "jobId",
          "type": "bytes32"
        },
        {
          "indexed": false,
          "name": "client",
          "type": "address"
        },
        {
          "indexed": true,
          "name": "provider",
          "type": "address"
        },
        {
          "indexed": false,
          "name": "totalCosts",
          "type": "uint256"
        }
      ],
      "name": "OnCreateJob",
      "type": "event"
    },
    {
      "anonymous": false,
      "inputs": [
        {
          "indexed": true,
          "name": "dapp",
          "type": "address"
        },
        {
          "indexed": true,
          "name": "jobId",
          "type": "bytes32"
        }
      ],
      "name": "OnCompleteJob",
      "type": "event"
    },
    {
      "anonymous": false,
      "inputs": [
        {
          "indexed": true,
          "name": "dapp",
          "type": "address"
        },
        {
          "indexed": true,
          "name": "jobId",
          "type": "bytes32"
        }
      ],
      "name": "OnCancelJobByProvider",
      "type": "event"
    },
    {
      "anonymous": false,
      "inputs": [
        {
          "indexed": true,
          "name": "dapp",
          "type": "address"
        },
        {
          "indexed": true,
          "name": "jobId",
          "type": "bytes32"
        },
        {
          "indexed": false,
          "name": "payToProviderPercentage",
          "type": "uint8"
        },
        {
          "indexed": true,
          "name": "arbiter",
          "type": "address"
        },
        {
          "indexed": false,
          "name": "payToArbiterPercentage",
          "type": "uint8"
        }
      ],
      "name": "OnCancelJobByAdmin",
      "type": "event"
    },
    {
      "anonymous": false,
      "inputs": [
        {
          "indexed": true,
          "name": "token",
          "type": "address"
        },
        {
          "indexed": true,
          "name": "dApp",
          "type": "address"
        },
        {
          "indexed": false,
          "name": "priceOracle",
          "type": "address"
        }
      ],
      "name": "OnInitialize",
      "type": "event"
    },
    {
      "anonymous": false,
      "inputs": [
        {
          "indexed": true,
          "name": "dapp",
          "type": "address"
        },
        {
          "indexed": true,
          "name": "client",
          "type": "address"
        },
        {
          "indexed": true,
          "name": "provider",
          "type": "address"
        },
        {
          "indexed": false,
          "name": "amount",
          "type": "uint256"
        },
        {
          "indexed": false,
          "name": "daiAmount",
          "type": "uint256"
        }
      ],
      "name": "OnCreateEscrow",
      "type": "event"
    },
    {
      "anonymous": false,
      "inputs": [
        {
          "indexed": true,
          "name": "dapp",
          "type": "address"
        },
        {
          "indexed": true,
          "name": "escrowId",
          "type": "uint256"
        }
      ],
      "name": "OnCompleteEscrow",
      "type": "event"
    },
    {
      "anonymous": false,
      "inputs": [
        {
          "indexed": true,
          "name": "dapp",
          "type": "address"
        },
        {
          "indexed": true,
          "name": "escrowId",
          "type": "uint256"
        }
      ],
      "name": "OnCancelEscrowByProvider",
      "type": "event"
    },
    {
      "anonymous": false,
      "inputs": [
        {
          "indexed": true,
          "name": "dapp",
          "type": "address"
        },
        {
          "indexed": true,
          "name": "escrowId",
          "type": "uint256"
        },
        {
          "indexed": false,
          "name": "payToProviderAmount",
          "type": "uint256"
        },
        {
          "indexed": true,
          "name": "arbiter",
          "type": "address"
        },
        {
          "indexed": false,
          "name": "payToArbiterAmount",
          "type": "uint256"
        }
      ],
      "name": "OnCancelEscrow",
      "type": "event"
    },
    {
      "anonymous": false,
      "inputs": [
        {
          "indexed": false,
          "name": "contractName",
          "type": "string"
        },
        {
          "indexed": false,
          "name": "migrationId",
          "type": "string"
        }
      ],
      "name": "Migrated",
      "type": "event"
    },
    {
      "constant": false,
      "inputs": [
        {
          "name": "_token",
          "type": "address"
        },
        {
          "name": "_canworkAdmin",
          "type": "address"
        },
        {
          "name": "_dApp",
          "type": "address"
        },
        {
          "name": "_priceOracle",
          "type": "address"
        }
      ],
      "name": "initialize",
      "outputs": [],
      "payable": false,
      "stateMutability": "nonpayable",
      "type": "function"
    },
    {
      "constant": false,
      "inputs": [
        {
          "name": "_oracle",
          "type": "address"
        }
      ],
      "name": "updatePriceOracleAddress",
      "outputs": [],
      "payable": false,
      "stateMutability": "nonpayable",
      "type": "function"
    },
    {
      "constant": false,
      "inputs": [
        {
          "name": "_jobId",
          "type": "bytes32"
        },
        {
          "name": "_client",
          "type": "address"
        },
        {
          "name": "_provider",
          "type": "address"
        },
        {
          "name": "_totalCosts",
          "type": "uint256"
        }
      ],
      "name": "createJob",
      "outputs": [
        {
          "name": "",
          "type": "bool"
        }
      ],
      "payable": false,
      "stateMutability": "nonpayable",
      "type": "function"
    },
    {
      "constant": false,
      "inputs": [
        {
          "name": "_jobId",
          "type": "bytes32"
        }
      ],
      "name": "completeJob",
      "outputs": [
        {
          "name": "",
          "type": "bool"
        }
      ],
      "payable": false,
      "stateMutability": "nonpayable",
      "type": "function"
    },
    {
      "constant": false,
      "inputs": [
        {
          "name": "_jobId",
          "type": "bytes32"
        }
      ],
      "name": "cancelJobByProvider",
      "outputs": [
        {
          "name": "",
          "type": "bool"
        }
      ],
      "payable": false,
      "stateMutability": "nonpayable",
      "type": "function"
    },
    {
      "constant": false,
      "inputs": [
        {
          "name": "_jobId",
          "type": "bytes32"
        },
        {
          "name": "_payToClientPercentage",
          "type": "uint8"
        },
        {
          "name": "_payToProviderPercentage",
          "type": "uint8"
        },
        {
          "name": "_arbiter",
          "type": "address"
        },
        {
          "name": "_payToArbiterPercentage",
          "type": "uint8"
        }
      ],
      "name": "cancelJobByAdmin",
      "outputs": [
        {
          "name": "",
          "type": "bool"
        }
      ],
      "payable": false,
      "stateMutability": "nonpayable",
      "type": "function"
    },
    {
      "constant": true,
      "inputs": [
        {
          "name": "_jobId",
          "type": "bytes32"
        }
      ],
      "name": "getJob",
      "outputs": [
        {
          "name": "client",
          "type": "address"
        },
        {
          "name": "provider",
          "type": "address"
        },
        {
          "name": "amount",
          "type": "uint256"
        },
        {
          "name": "valueInDai",
          "type": "uint256"
        },
        {
          "name": "status",
          "type": "uint8"
        },
        {
          "name": "createdAt",
          "type": "uint256"
        },
        {
          "name": "closedAt",
          "type": "uint256"
        }
      ],
      "payable": false,
      "stateMutability": "view",
      "type": "function"
    },
    {
      "constant": true,
      "inputs": [
        {
          "name": "_jobId",
          "type": "bytes32"
        }
      ],
      "name": "getJobPayments",
      "outputs": [
        {
          "name": "amount",
          "type": "uint256"
        },
        {
          "name": "valueInDai",
          "type": "uint256"
        },
        {
          "name": "payoutAmount",
          "type": "uint256"
        },
        {
          "name": "paidToDappAmount",
          "type": "uint256"
        },
        {
          "name": "paidToProviderAmount",
          "type": "uint256"
        },
        {
          "name": "paidToClientAmount",
          "type": "uint256"
        },
        {
          "name": "paidToArbiterAmount",
          "type": "uint256"
        }
      ],
      "payable": false,
      "stateMutability": "view",
      "type": "function"
    }
  ],
  "bytecode": "0x6080604052600060025534801561001557600080fd5b50612b3d806100256000396000f3006080604052600436106100cf5763ffffffff7c01000000000000000000000000000000000000000000000000000000006000350416632630c12f81146100d45780636e6bfca0146101055780637d19e5961461013157806386d1e02b146101905780638ad682af146101b3578063991e01391461023d578063a52c7a4f14610255578063afcfad6e1461028c578063c0bac1a8146102dc578063d391014b14610373578063e7acaa1e14610388578063f729cf0d146103b5578063f8c8765e146103cd578063fd232b5914610400575b600080fd5b3480156100e057600080fd5b506100e9610418565b60408051600160a060020a039092168252519081900360200190f35b34801561011157600080fd5b5061011d600435610427565b604080519115158252519081900360200190f35b34801561013d57600080fd5b50610149600435610518565b60408051600160a060020a03988916815296909716602087015285870194909452606085019290925260ff16608084015260a083015260c082015290519081900360e00190f35b34801561019c57600080fd5b506101b1600160a060020a0360043516610613565b005b3480156101bf57600080fd5b506101c8610819565b6040805160208082528351818301528351919283929083019185019080838360005b838110156102025781810151838201526020016101ea565b50505050905090810190601f16801561022f5780820380516001836020036101000a031916815260200191505b509250505060405180910390f35b34801561024957600080fd5b5061011d600435610850565b34801561026157600080fd5b5061011d60043560ff602435811690604435811690600160a060020a03606435169060843516610941565b34801561029857600080fd5b506102a4600435610c37565b604080519788526020880196909652868601949094526060860192909252608085015260a084015260c0830152519081900360e00190f35b3480156102e857600080fd5b506040805160206004803580820135601f810184900484028501840190955284845261011d94369492936024939284019190819084018382808284375050604080516020601f89358b018035918201839004830284018301909452808352979a999881019791965091820194509250829150840183828082843750949750610d519650505050505050565b34801561037f57600080fd5b506101c8610e1a565b34801561039457600080fd5b5061011d600435600160a060020a0360243581169060443516606435610e51565b3480156103c157600080fd5b50610149600435610f7a565b3480156103d957600080fd5b506101b1600160a060020a036004358116906024358116906044358116906064351661107d565b34801561040c57600080fd5b506102a4600435611370565b600554600160a060020a031681565b6000600160f860020a031960f860020a83831a0216151561044757600080fd5b60008281526008602052604081206004015460ff16600281111561046757fe5b1461047157600080fd5b600082815260086020526040902060020154600160a060020a0316331461049757600080fd5b6000828152600860205260409020600301546104b290611436565b15156104bd57600080fd5b600082815260086020526040808220600401805460ff1916600217905560095490518492600160a060020a03909216917f9deeb35dcae810f88ff11beec766eaa1b2e9f1ef7bcefbb8f2a3f91fdf98c42691a3506001919050565b600080600080600080600080881180156105415750600088815260066020819052604082200154115b1515610597576040805160e560020a62461bcd02815260206004820152601960248201527f4d75737420626520612076616c696420657363726f7720496400000000000000604482015290519081900360640190fd5b6000888152600660205260409020600181015460028083015460038401546004850154600590950154600160a060020a03948516959290941693909260ff909116908111156105e257fe5b60009c8d52600660208190526040909d209c8d01546007909d0154949d939c929b5090995097509550909350915050565b600160a060020a038116158015906106395750600554600160a060020a03828116911614155b151561068f576040805160e560020a62461bcd02815260206004820152601a60248201527f4d7573742062652076616c69642c206e65772061646472657373000000000000604482015290519081900360640190fd5b600754604080518082018252600581527f6f776e65720000000000000000000000000000000000000000000000000000006020820190815282517f217fe6c6000000000000000000000000000000000000000000000000000000008152336004820181815260248301958652845160448401528451600160a060020a039097169663217fe6c6969295949193606401919080838360005b8381101561073e578181015183820152602001610726565b50505050905090810190601f16801561076b5780820380516001836020036101000a031916815260200191505b509350505050602060405180830381600087803b15801561078b57600080fd5b505af115801561079f573d6000803e3d6000fd5b505050506040513d60208110156107b557600080fd5b5051151561080d576040805160e560020a62461bcd02815260206004820152601560248201527f4f6e6c79206f776e65722063616e207570646174650000000000000000000000604482015290519081900360640190fd5b6108168161169a565b50565b60408051808201909152600581527f6f776e6572000000000000000000000000000000000000000000000000000000602082015281565b6000600160f860020a031960f860020a83831a0216151561087057600080fd5b60008281526008602052604081206004015460ff16600281111561089057fe5b1461089a57600080fd5b600082815260086020526040902060010154600160a060020a031633146108c057600080fd5b6000828152600860205260409020600301546108db906116c9565b15156108e657600080fd5b600082815260086020526040808220600401805460ff1916600117905560095490518492600160a060020a03909216917f5fa8e6f4fbdedc8f67f68ed5dd5a194353476578eb9231d8925543e55fec008a91a3506001919050565b6000600160f860020a031960f860020a87831a021615156109ac576040805160e560020a62461bcd02815260206004820152601360248201527f4d7573742062652076616c6964206a6f62496400000000000000000000000000604482015290519081900360640190fd5b60008681526008602052604081206004015460ff1660028111156109cc57fe5b146109d657600080fd5b600754604080518082018252600581527f61646d696e0000000000000000000000000000000000000000000000000000006020820190815282517f217fe6c6000000000000000000000000000000000000000000000000000000008152336004820181815260248301958652845160448401528451600160a060020a039097169663217fe6c6969295949193606401919080838360005b83811015610a85578181015183820152602001610a6d565b50505050905090810190601f168015610ab25780820380516001836020036101000a031916815260200191505b509350505050602060405180830381600087803b158015610ad257600080fd5b505af1158015610ae6573d6000803e3d6000fd5b505050506040513d6020811015610afc57600080fd5b50511515610b0957600080fd5b600560ff83161115610b8b576040805160e560020a62461bcd02815260206004820152602c60248201527f417262697465722063616e6e6f742072656365697665206d6f7265207468616e60448201527f203525206f662066756e64730000000000000000000000000000000000000000606482015290519081900360840190fd5b600086815260086020526040902060030154610baa9086868686611ab9565b1515610bb557600080fd5b600086815260086020526040902060040180546002919060ff191660018302179055506009546040805160ff8088168252851660208201528151600160a060020a03808816948b949116927fb5147162f3f7e77567ea20823c3339ae369a07c96dafce09964879ed9ea17611929081900390910190a450600195945050505050565b6000808080808080600160f860020a031960f860020a89831a02161515610ca8576040805160e560020a62461bcd02815260206004820152601360248201527f4d7573742062652076616c6964206a6f62496400000000000000000000000000604482015290519081900360640190fd5b600088815260086020526040812054901a60f860020a02600160f860020a0319161515610d1f576040805160e560020a62461bcd02815260206004820152600e60248201527f4a6f62206d757374206578697374000000000000000000000000000000000000604482015290519081900360640190fd5b600088815260086020526040902060030154610d3a90611370565b959e949d50929b5090995097509550909350915050565b600080836040518082805190602001908083835b60208310610d845780518252601f199092019160209182019101610d65565b51815160209384036101000a6000190180199092169116179052920194855250604051938490038101842086519094879450925082918401908083835b60208310610de05780518252601f199092019160209182019101610dc1565b51815160209384036101000a600019018019909216911617905292019485525060405193849003019092205460ff16925050505b92915050565b60408051808201909152600581527f61646d696e000000000000000000000000000000000000000000000000000000602082015281565b6000600160f860020a031960f860020a86831a02161515610e7157600080fd5b600085815260086020526040812054901a60f860020a02600160f860020a03191615610e9c57600080fd5b6000858152600860205260409020858155600181018054600160a060020a0387811673ffffffffffffffffffffffffffffffffffffffff19928316179092556002830180549287169290911691909117905560048101805460ff19169055600501829055610f0b848484612219565b600086815260086020908152604091829020600301929092556009548151600160a060020a0388811682529381018690528251848816948a949316927f06ec2805bab16df077e1bf66c474762caec30f56f6c01e4e673aa60b8dca979e928290030190a4506001949350505050565b6000808080808080600160f860020a031960f860020a89831a02161515610feb576040805160e560020a62461bcd02815260206004820152601360248201527f4d7573742062652076616c6964206a6f62496400000000000000000000000000604482015290519081900360640190fd5b600088815260086020526040812054901a60f860020a02600160f860020a0319161515611062576040805160e560020a62461bcd02815260206004820152600e60248201527f4a6f62206d757374206578697374000000000000000000000000000000000000604482015290519081900360640190fd5b600088815260086020526040902060030154610d3a90610518565b6040805190810160405280600a81526020017f43616e576f726b4a6f62000000000000000000000000000000000000000000008152506040805190810160405280600581526020017f302e312e330000000000000000000000000000000000000000000000000000008152506110f38282610d51565b156110fd57600080fd5b600160a060020a0386161580159061111d5750600160a060020a03851615155b80156111315750600160a060020a03841615155b80156111455750600160a060020a03831615155b151561115057600080fd5b61115b8685856125de565b60078054600160a060020a0380881673ffffffffffffffffffffffffffffffffffffffff199283161790925560098054928716929091169190911790556040805181815283519181019190915282517fdd117a11c22118c9dee4b5a67ce578bc44529dce21ee0ccc439588fbb9fb4ea39184918491908190602080830191606084019187019080838360005b838110156111ff5781810151838201526020016111e7565b50505050905090810190601f16801561122c5780820380516001836020036101000a031916815260200191505b50838103825284518152845160209182019186019080838360005b8381101561125f578181015183820152602001611247565b50505050905090810190601f16801561128c5780820380516001836020036101000a031916815260200191505b5094505050505060405180910390a160016000836040518082805190602001908083835b602083106112cf5780518252601f1990920191602091820191016112b0565b51815160209384036101000a6000190180199092169116179052920194855250604051938490038101842086519094879450925082918401908083835b6020831061132b5780518252601f19909201916020918201910161130c565b51815160209384036101000a60001901801990921691161790529201948552506040519384900301909220805460ff1916931515939093179092555050505050505050565b600080600080600080600080881180156113995750600088815260066020819052604082200154115b15156113ef576040805160e560020a62461bcd02815260206004820152601960248201527f4d75737420626520612076616c696420657363726f7720496400000000000000604482015290519081900360640190fd5b5050506000948552505060066020525050604090206003810154600482015460088301546009840154600a850154600b860154600c90960154949693959294919390929190565b60008060008381526006602052604090206005015460ff16600281111561145957fe5b146114ae576040805160e560020a62461bcd02815260206004820152601b60248201527f457363726f7720737461747573206d75737420626520276e6577270000000000604482015290519081900360640190fd5b600082815260066020526040902060020154600160a060020a03163314611544576040805160e560020a62461bcd028152602060048201526024808201527f5472616e73616374696f6e206d7573742062652073656e742062792070726f7660448201527f6964657200000000000000000000000000000000000000000000000000000000606482015290519081900360840190fd5b61154d82612942565b600083815260066020908152604080832060088101859055600b810185905560058101805460ff1916600217905543600782015560018054910154825160e060020a63a9059cbb028152600160a060020a0391821660048201526024810196909652915191169363a9059cbb9360448083019493928390030190829087803b1580156115d857600080fd5b505af11580156115ec573d6000803e3d6000fd5b505050506040513d602081101561160257600080fd5b5051151561165a576040805160e560020a62461bcd02815260206004820152601b60248201527f436c69656e74206d7573742072656365697665207061796d656e740000000000604482015290519081900360640190fd5b6003546040518391600160a060020a0316907f42a9d051cfad92ff80e72d1f2fe48fd37941d2e3d8a231b4a2a6993474dd672690600090a3506001919050565b6005805473ffffffffffffffffffffffffffffffffffffffff1916600160a060020a0392909216919091179055565b600080808060008581526006602052604090206005015460ff1660028111156116ee57fe5b14611743576040805160e560020a62461bcd02815260206004820152601b60248201527f457363726f7720737461747573206d75737420626520276e6577270000000000604482015290519081900360640190fd5b600084815260066020526040902060010154600160a060020a031633146117da576040805160e560020a62461bcd02815260206004820152602660248201527f5472616e73616374696f6e206d7573742062652073656e74206279207468652060448201527f636c69656e740000000000000000000000000000000000000000000000000000606482015290519081900360840190fd5b600084815260066020526040902060058101805460ff191660011790554360079091015561180784612942565b600085815260066020526040902060080181905560045461184191606491611835919063ffffffff612ac116565b9063ffffffff612aea16565b9150600082111561193c576000848152600660209081526040808320600901859055600154600354825160e060020a63a9059cbb028152600160a060020a03918216600482015260248101889052925191169363a9059cbb93604480850194919392918390030190829087803b1580156118ba57600080fd5b505af11580156118ce573d6000803e3d6000fd5b505050506040513d60208110156118e457600080fd5b5051151561193c576040805160e560020a62461bcd02815260206004820152601960248201527f44617070206d7573742072656365697665207061796d656e7400000000000000604482015290519081900360640190fd5b60008481526006602052604090206008015461195e908363ffffffff612aff16565b6000858152600660209081526040808320600a8101859055600154600290910154825160e060020a63a9059cbb028152600160a060020a039182166004820152602481018790529251959650169363a9059cbb93604480840194938390030190829087803b1580156119cf57600080fd5b505af11580156119e3573d6000803e3d6000fd5b505050506040513d60208110156119f957600080fd5b50511515611a77576040805160e560020a62461bcd02815260206004820152602660248201527f457363726f77206d75737420686f6c6420656e6f7567682043414e20666f722060448201527f7061796f75740000000000000000000000000000000000000000000000000000606482015290519081900360840190fd5b6003546040518591600160a060020a0316907f4bebfffc0dc0fb54ffd42c8fe2424e8fe0c482f089c4d0d6e6f1ea5d9e34248a90600090a35060019392505050565b600080808060008981526006602052604090206005015460ff166002811115611ade57fe5b14611b33576040805160e560020a62461bcd02815260206004820152601b60248201527f457363726f7720737461747573206d75737420626520276e6577270000000000604482015290519081900360640190fd5b60008760ff1610158015611b4b575060008660ff1610155b8015611b5b575060008460ff1610155b8015611b6b575060648760ff1611155b8015611b7b575060648660ff1611155b8015611b8b575060648460ff1611155b1515611c07576040805160e560020a62461bcd02815260206004820152603660248201527f5061796d656e747320746f20636c69656e742c2070726f766964657220616e6460448201527f2061726269746572206d75737420626520677465203000000000000000000000606482015290519081900360840190fd5b606460ff88880186011614611c8c576040805160e560020a62461bcd02815260206004820152602360248201527f546f74616c207061796f7574206d75737420657175616c20313030207065726360448201527f656e740000000000000000000000000000000000000000000000000000000000606482015290519081900360840190fd5b600088815260066020526040902060058101805460ff1916600217905543600790910155611cb988612942565b6000898152600660205260409020600801819055600454611ce791606491611835919063ffffffff612ac116565b91506000821115611de2576000888152600660209081526040808320600901859055600154600354825160e060020a63a9059cbb028152600160a060020a03918216600482015260248101889052925191169363a9059cbb93604480850194919392918390030190829087803b158015611d6057600080fd5b505af1158015611d74573d6000803e3d6000fd5b505050506040513d6020811015611d8a57600080fd5b50511515611de2576040805160e560020a62461bcd02815260206004820152601960248201527f44617070206d7573742072656365697665207061796d656e7400000000000000604482015290519081900360640190fd5b600088815260066020526040902060080154611e04908363ffffffff612aff16565b905060008460ff161115611f7557600160a060020a0385161515611e72576040805160e560020a62461bcd02815260206004820152601d60248201527f417262697465722061646472657373206d7573742062652076616c6964000000604482015290519081900360640190fd5b611e8a60646118358360ff881663ffffffff612ac116565b6000898152600660209081526040808320600c01849055600154815160e060020a63a9059cbb028152600160a060020a038b811660048301526024820196909652915194169363a9059cbb93604480840194938390030190829087803b158015611ef357600080fd5b505af1158015611f07573d6000803e3d6000fd5b505050506040513d6020811015611f1d57600080fd5b50511515611f75576040805160e560020a62461bcd02815260206004820152601c60248201527f41726269746572206d7573742072656365697665207061796d656e7400000000604482015290519081900360640190fd5b60008660ff16111561208c57611f9960646118358360ff8a1663ffffffff612ac116565b6000898152600660209081526040808320600a8101859055600154600290910154825160e060020a63a9059cbb028152600160a060020a0391821660048201526024810196909652915191169363a9059cbb9360448083019493928390030190829087803b15801561200a57600080fd5b505af115801561201e573d6000803e3d6000fd5b505050506040513d602081101561203457600080fd5b5051151561208c576040805160e560020a62461bcd02815260206004820152601d60248201527f50726f7669646572206d7573742072656365697665207061796d656e74000000604482015290519081900360640190fd5b60008760ff1611156121a1576120b060646118358360ff8b1663ffffffff612ac116565b6000898152600660209081526040808320600b810185905560018054910154825160e060020a63a9059cbb028152600160a060020a0391821660048201526024810196909652915191169363a9059cbb9360448083019493928390030190829087803b15801561211f57600080fd5b505af1158015612133573d6000803e3d6000fd5b505050506040513d602081101561214957600080fd5b505115156121a1576040805160e560020a62461bcd02815260206004820152601b60248201527f436c69656e74206d7573742072656365697665207061796d656e740000000000604482015290519081900360640190fd5b600354600089815260066020908152604091829020600a810154600c909101548351918252918101919091528151600160a060020a03808a16948d949116927f23157ee5a4e89bcebb1fc3e9b6e1533aefe88f9bde92308b49a71e800103542b929081900390910190a4506001979650505050505050565b6000808080600160a060020a0387161580159061223e5750600160a060020a03861615155b801561224a5750600085115b15156122c6576040805160e560020a62461bcd02815260206004820152602e60248201527f4d75737420626520612076616c69642061646472657373657320616e64206e6f60448201527f6e207a65726f20616d6f756e7473000000000000000000000000000000000000606482015290519081900360840190fd5b600154604080517f23b872dd000000000000000000000000000000000000000000000000000000008152600160a060020a038a8116600483015230602483015260448201899052915191909216916323b872dd9160648083019260209291908290030181600087803b15801561233b57600080fd5b505af115801561234f573d6000803e3d6000fd5b505050506040513d602081101561236557600080fd5b505115156123e3576040805160e560020a62461bcd02815260206004820152603a60248201527f436c69656e74206d757374206861766520617574686f7269736174696f6e206160448201527f6e642062616c616e636520746f207472616e736665722043414e000000000000606482015290519081900360840190fd5b600554604080517f9fd650ce000000000000000000000000000000000000000000000000000000008152600481018890529051600160a060020a0390921691639fd650ce916024808201926020929091908290030181600087803b15801561244a57600080fd5b505af115801561245e573d6000803e3d6000fd5b505050506040513d602081101561247457600080fd5b50519250600083116124f5576040805160e560020a62461bcd028152602060048201526024808201527f4a6f622076616c7565206d7573742062652067726561746572207468616e203060448201527f2055534400000000000000000000000000000000000000000000000000000000606482015290519081900360840190fd5b505060028054600190810180835560008181526006602081815260408084208581559586018054600160a060020a038e811673ffffffffffffffffffffffffffffffffffffffff19928316811790935598880180548e8b1692168217905560038089018d9055600489018b9055439589019590955560058801805460ff1916905560088801869055600a8801869055600b8801869055600c880195909555925481518b8152928301899052815195979495939416927f2deff110fb90284ba1ebd12f5a2a449109b5327e5144dcf39bae0fa2fcfa7afb9281900390910190a45095945050505050565b6040805190810160405280600681526020017f457363726f7700000000000000000000000000000000000000000000000000008152506040805190810160405280600581526020017f302e312e330000000000000000000000000000000000000000000000000000008152506126548282610d51565b1561265e57600080fd5b600160a060020a0385161580159061267e5750600160a060020a03841615155b80156126925750600160a060020a03831615155b15156126e8576040805160e560020a62461bcd02815260206004820152601760248201527f4d7573742062652076616c696420616464726573736573000000000000000000604482015290519081900360640190fd5b60018054600160a060020a0380881673ffffffffffffffffffffffffffffffffffffffff19928316811784556003805489841690851681179091556005805493891693909416831790935560049390935560408051918252519192917f92bd6b72cc9afdcca9b04e941a144617e9c12e1b5160a3fb40163fe4a786bff09181900360200190a37fdd117a11c22118c9dee4b5a67ce578bc44529dce21ee0ccc439588fbb9fb4ea38282604051808060200180602001838103835285818151815260200191508051906020019080838360005b838110156127d25781810151838201526020016127ba565b50505050905090810190601f1680156127ff5780820380516001836020036101000a031916815260200191505b50838103825284518152845160209182019186019080838360005b8381101561283257818101518382015260200161281a565b50505050905090810190601f16801561285f5780820380516001836020036101000a031916815260200191505b5094505050505060405180910390a160016000836040518082805190602001908083835b602083106128a25780518252601f199092019160209182019101612883565b51815160209384036101000a6000190180199092169116179052920194855250604051938490038101842086519094879450925082918401908083835b602083106128fe5780518252601f1990920191602091820191016128df565b51815160209384036101000a60001901801990921691161790529201948552506040519384900301909220805460ff19169315159390931790925550505050505050565b600554600082815260066020908152604080832060049081015482517fc8a1d96e00000000000000000000000000000000000000000000000000000000815291820152905192938493600160a060020a039091169263c8a1d96e926024808201939182900301818787803b1580156129b957600080fd5b505af11580156129cd573d6000803e3d6000fd5b505050506040513d60208110156129e357600080fd5b5051905060008111612a64576040805160e560020a62461bcd028152602060048201526024808201527f4f7261636c65206d7573742072657475726e2061206e6f6e207a65726f20706160448201527f796f757400000000000000000000000000000000000000000000000000000000606482015290519081900360840190fd5b600083815260066020526040902060030154612a8790600263ffffffff612ac116565b8110612ab757600083815260066020526040902060030154612ab090600263ffffffff612ac116565b9150612abb565b8091505b50919050565b6000821515612ad257506000610e14565b50818102818382811515612ae257fe5b0414610e1457fe5b60008183811515612af757fe5b049392505050565b600082821115612b0b57fe5b509003905600a165627a7a723058202b863281e2b9923f8b5b947be23385f709a099f94d22c32227505ac621c6ab290029",
  "source": "pragma solidity ^0.4.24;\n\n/**\n * @title ERC20 interface\n * @dev see https://github.com/ethereum/EIPs/issues/20\n */\ninterface ERC20 {\n  function totalSupply() external view returns (uint256);\n  function balanceOf(address who) external view returns (uint256);\n  function transfer(address to, uint256 value) external returns (bool);\n  function allowance(address owner, address spender) external view returns (uint256);\n  function transferFrom(address from, address to, uint256 value) external returns (bool);\n  function approve(address spender, uint256 value) external returns (bool);\n}\n\n\n/**\n * @title SafeMath\n * @dev Math operations with safety checks that throw on error\n */\nlibrary SafeMath {\n\n  /**\n  * @dev Multiplies two numbers, throws on overflow.\n  */\n  function mul(uint256 a, uint256 b) internal pure returns (uint256 c) {\n    if (a == 0) {\n      return 0;\n    }\n    c = a * b;\n    assert(c / a == b);\n    return c;\n  }\n\n  /**\n  * @dev Integer division of two numbers, truncating the quotient.\n  */\n  function div(uint256 a, uint256 b) internal pure returns (uint256) {\n    // assert(b > 0); // Solidity automatically throws when dividing by 0\n    // uint256 c = a / b;\n    // assert(a == b * c + a % b); // There is no case in which this doesn't hold\n    return a / b;\n  }\n\n  /**\n  * @dev Subtracts two numbers, throws on overflow (i.e. if subtrahend is greater than minuend).\n  */\n  function sub(uint256 a, uint256 b) internal pure returns (uint256) {\n    assert(b <= a);\n    return a - b;\n  }\n\n  /**\n  * @dev Adds two numbers, throws on overflow.\n  */\n  function add(uint256 a, uint256 b) internal pure returns (uint256 c) {\n    c = a + b;\n    assert(c >= a);\n    return c;\n  }\n}\n\n/**\n * @title Migratable\n * Helper contract to support intialization and migration schemes between\n * different implementations of a contract in the context of upgradeability.\n * To use it, replace the constructor with a function that has the\n * `isInitializer` modifier starting with `\"0\"` as `migrationId`.\n * When you want to apply some migration code during an upgrade, increase\n * the `migrationId`. Or, if the migration code must be applied only after\n * another migration has been already applied, use the `isMigration` modifier.\n * This helper supports multiple inheritance.\n * WARNING: It is the developer's responsibility to ensure that migrations are\n * applied in a correct order, or that they are run at all.\n * See `Initializable` for a simpler version.\n */\ncontract Migratable {\n  /**\n   * @dev Emitted when the contract applies a migration.\n   * @param contractName Name of the Contract.\n   * @param migrationId Identifier of the migration applied.\n   */\n  event Migrated(string contractName, string migrationId);\n\n  /**\n   * @dev Mapping of the already applied migrations.\n   * (contractName => (migrationId => bool))\n   */\n  mapping (string => mapping (string => bool)) internal migrated;\n\n\n  /**\n   * @dev Modifier to use in the initialization function of a contract.\n   * @param contractName Name of the contract.\n   * @param migrationId Identifier of the migration.\n   */\n  modifier isInitializer(string contractName, string migrationId) {\n    require(!isMigrated(contractName, migrationId));\n    _;\n    emit Migrated(contractName, migrationId);\n    migrated[contractName][migrationId] = true;\n  }\n\n  /**\n   * @dev Modifier to use in the migration of a contract.\n   * @param contractName Name of the contract.\n   * @param requiredMigrationId Identifier of the previous migration, required\n   * to apply new one.\n   * @param newMigrationId Identifier of the new migration to be applied.\n   */\n  modifier isMigration(string contractName, string requiredMigrationId, string newMigrationId) {\n    require(isMigrated(contractName, requiredMigrationId) && !isMigrated(contractName, newMigrationId));\n    _;\n    emit Migrated(contractName, newMigrationId);\n    migrated[contractName][newMigrationId] = true;\n  }\n\n  /**\n   * @dev Returns true if the contract migration was applied.\n   * @param contractName Name of the contract.\n   * @param migrationId Identifier of the migration.\n   * @return true if the contract migration was applied, false otherwise.\n   */\n  function isMigrated(string contractName, string migrationId) public view returns(bool) {\n    return migrated[contractName][migrationId];\n  }\n}\n\n\n/**\n * @title ERC20 Bancor Price Oracle Interface\n */\ncontract ERC20BancorPriceOracle {\n    function getTokenToDai(uint256 _tokenAmount) external view returns (uint256);\n    function getDaiToToken(uint256 _daiAmount) external view returns (uint256);\n}\n\n\ncontract Escrow is Migratable {\n    using SafeMath for uint256;\n\n    ERC20 internal escrowToken;\n    uint256 internal escrowId = 0;\n    address escrowDapp;    \n\n    uint256 internal DAPP_PAYMENT_PERCENTAGE;  \n\n    ERC20BancorPriceOracle public priceOracle;\n\n    enum EscrowStatus {\n        New,\n        Completed,\n        Cancelled\n    }\n\n    struct EscrowRecord {\n        uint256 id;\n        address client;\n        address provider;\n        uint256 amount;\n        uint256 totalValueDai;\n        EscrowStatus status;\n        uint256 createdAt;\n        uint256 closedAt;\n        uint256 payoutAmount;\n        uint256 paidToDappAmount;\n        uint256 paidToProviderAmount;\n        uint256 paidToClientAmount;\n        uint256 paidToArbiterAmount;\n    }\n\n    mapping(uint256 => EscrowRecord) internal escrows;\n\n    event OnInitialize(address indexed token, address indexed dApp, address priceOracle);\n    event OnCreateEscrow(address indexed dapp, address indexed client, address indexed provider, uint256 amount, uint256 daiAmount);\n    event OnCompleteEscrow(address indexed dapp, uint256 indexed escrowId);\n    event OnCancelEscrowByProvider(address indexed dapp, uint256 indexed escrowId);\n    event OnCancelEscrow(address indexed dapp, uint256 indexed escrowId, uint256 payToProviderAmount, address indexed arbiter, uint256 payToArbiterAmount);\n    \n    function initialize(ERC20 _token, address _dApp, address _priceOracle) \n    internal \n    isInitializer(\"Escrow\", \"0.1.3\") {\n        require(_token != address(0) && _dApp != address(0) && _priceOracle != address(0), \"Must be valid addresses\");\n        \n        escrowToken = _token;\n        escrowDapp = _dApp;\n        priceOracle = ERC20BancorPriceOracle(_priceOracle);\n        DAPP_PAYMENT_PERCENTAGE = 1;\n\n        emit OnInitialize(_token, _dApp, _priceOracle);\n    }\n\n    /**\n     * @dev Initialise the escrow and store its details on chain\n     * Calculates the DAI value equivalent of the deposited CAN tokens and stores this to hedge the escrow later\n     * @param _client Address of the client\n     * @param _provider Address of the provider\n     * @param _amount total amount of CAN\n     * @return id of the escrow\n     */\n    function createEscrow(address _client, address _provider, uint256 _amount) \n    internal \n    returns (uint256) {\n        require(_client != address(0) && _provider != address(0) && _amount > 0, \"Must be a valid addresses and non zero amounts\");\n        require(escrowToken.transferFrom(_client, address(this), _amount), \"Client must have authorisation and balance to transfer CAN\");\n\n        uint256 daiValueInEscrow = priceOracle.getTokenToDai(_amount);\n        require(daiValueInEscrow > 0, \"Job value must be greater than 0 USD\");\n\n        uint256 id = ++escrowId;\n        EscrowRecord storage escrow = escrows[id];\n        escrow.id = id;\n        escrow.client = _client;\n        escrow.provider = _provider;\n        escrow.amount = _amount;\n        escrow.totalValueDai = daiValueInEscrow;\n        escrow.createdAt = block.number;\n        escrow.status = EscrowStatus.New;\n        escrow.payoutAmount = 0;\n        escrow.paidToProviderAmount = 0;\n        escrow.paidToClientAmount = 0;\n        escrow.paidToArbiterAmount = 0;\n\n        emit OnCreateEscrow(escrowDapp, _client, _provider, _amount, daiValueInEscrow);\n\n        return id;\n    }\n\n    /**\n     * @dev Completes the escrow, calculating the amount of CAN to pay out based on the DAI value\n     * Sends DAPP_PAYMENT_PERCENTAGE amount to the dapp, and the rest to the provider\n     * @param _escrowId Id of the escrow to complete\n     * @return bool success\n     */\n    function completeEscrow(uint256 _escrowId) \n    internal \n    returns (bool) {\n        require(escrows[_escrowId].status == EscrowStatus.New, \"Escrow status must be 'new'\");\n        require(escrows[_escrowId].client == msg.sender, \"Transaction must be sent by the client\");\n\n        escrows[_escrowId].status = EscrowStatus.Completed;\n        escrows[_escrowId].closedAt = block.number;\n\n        escrows[_escrowId].payoutAmount = getTotalPayoutCAN(_escrowId);\n\n        uint256 payToDappAmount = escrows[_escrowId].payoutAmount.mul(DAPP_PAYMENT_PERCENTAGE).div(100);\n        if(payToDappAmount > 0){\n            escrows[_escrowId].paidToDappAmount = payToDappAmount;\n            require(escrowToken.transfer(escrowDapp, payToDappAmount), \"Dapp must receive payment\");\n        }\n\n        uint256 providerPayoutCan = escrows[_escrowId].payoutAmount.sub(payToDappAmount);\n        escrows[_escrowId].paidToProviderAmount = providerPayoutCan;\n\n        require(escrowToken.transfer(escrows[_escrowId].provider, escrows[_escrowId].paidToProviderAmount), \"Escrow must hold enough CAN for payout\");\n\n        emit OnCompleteEscrow(escrowDapp, _escrowId);\n\n        return true;\n    }\n    \n    /**\n     * @dev Get the total amount of CAN to pay out for the job, based on the DAI value\n     * @param _escrowId Id of the escrow to complete\n     * @return uint256 amount of CAN\n     */\n    function getTotalPayoutCAN(uint _escrowId) \n    internal\n    view \n    returns (uint256) {\n        uint256 totalPayoutCAN = priceOracle.getDaiToToken(escrows[_escrowId].totalValueDai);\n        require(totalPayoutCAN > 0, \"Oracle must return a non zero payout\");\n        if(totalPayoutCAN >= escrows[_escrowId].amount.mul(2)){ // max payout in CAN is 2x initial pay in\n            return escrows[_escrowId].amount.mul(2);\n        }\n        return totalPayoutCAN;\n    }\n\n    /**\n     * @dev The provider wishes to cancel the job before he begins working on it\n     * Pay out 100% of the DAI value in CAN back to the client\n     * @param _escrowId Id of the escrow to complete\n     * @return bool success\n     */\n    function cancelEscrowByProvider(uint256 _escrowId) \n    internal \n    returns (bool) {\n        require(escrows[_escrowId].status == EscrowStatus.New, \"Escrow status must be 'new'\");\n        require(escrows[_escrowId].provider == msg.sender, \"Transaction must be sent by provider\");\n\n        escrows[_escrowId].payoutAmount = getTotalPayoutCAN(_escrowId);\n\n        escrows[_escrowId].paidToClientAmount = escrows[_escrowId].payoutAmount;\n        escrows[_escrowId].status = EscrowStatus.Cancelled;\n        escrows[_escrowId].closedAt = block.number;\n\n        require(escrowToken.transfer(escrows[_escrowId].client, escrows[_escrowId].paidToClientAmount), \"Client must receive payment\");\n\n        emit OnCancelEscrowByProvider(escrowDapp, _escrowId);\n\n        return true;\n    }    \n\n    /**\n     * @dev The escrow finishes early, so we split the money between the parties, and the rest goes back\n     * to the client. We calculate payout from the DAI value\n     * @param _escrowId Id of the escrow to finalise\n     * @param _payToClientPercentage Percent of remaining funds to give to client\n     * @param _payToProviderPercentage Percent of remaining funds to give to client\n     * @param _arbiter Address of the arbiter\n     * @param _payToArbiterPercentage Percentage of remaining funds to give to arbiter\n     * @return bool success\n     */\n    function cancelEscrow(uint256 _escrowId, uint8 _payToClientPercentage, uint8 _payToProviderPercentage, address _arbiter, uint8 _payToArbiterPercentage) \n    internal \n    returns (bool) {\n        require(escrows[_escrowId].status == EscrowStatus.New, \"Escrow status must be 'new'\");\n        require(_payToClientPercentage >= 0 && _payToProviderPercentage >= 0 && _payToArbiterPercentage >= 0\n            && _payToClientPercentage <= 100 && _payToProviderPercentage <= 100 && _payToArbiterPercentage <= 100, \"Payments to client, provider and arbiter must be gte 0\");\n        require((_payToClientPercentage + _payToProviderPercentage + _payToArbiterPercentage) == 100, \"Total payout must equal 100 percent\");\n\n        escrows[_escrowId].status = EscrowStatus.Cancelled;        \n        escrows[_escrowId].closedAt = block.number;\n\n        escrows[_escrowId].payoutAmount = getTotalPayoutCAN(_escrowId);\n\n        uint256 payToDappAmount = escrows[_escrowId].payoutAmount.mul(DAPP_PAYMENT_PERCENTAGE).div(100);\n        if (payToDappAmount > 0){\n            escrows[_escrowId].paidToDappAmount = payToDappAmount;\n            require(escrowToken.transfer(escrowDapp, payToDappAmount), \"Dapp must receive payment\");\n        }\n\n        uint payoutToSplit = escrows[_escrowId].payoutAmount.sub(payToDappAmount);\n\n        if (_payToArbiterPercentage > 0) {\n            require(_arbiter != address(0), \"Arbiter address must be valid\");\n            escrows[_escrowId].paidToArbiterAmount = payoutToSplit.mul(_payToArbiterPercentage).div(100);\n            require(escrowToken.transfer(_arbiter, escrows[_escrowId].paidToArbiterAmount), \"Arbiter must receive payment\");\n        }                \n\n        if (_payToProviderPercentage > 0) {\n            escrows[_escrowId].paidToProviderAmount = payoutToSplit.mul(_payToProviderPercentage).div(100);\n            require(escrowToken.transfer(escrows[_escrowId].provider, escrows[_escrowId].paidToProviderAmount), \"Provider must receive payment\");\n        }        \n             \n        if (_payToClientPercentage > 0) {\n            escrows[_escrowId].paidToClientAmount = payoutToSplit.mul(_payToClientPercentage).div(100); \n            require(escrowToken.transfer(escrows[_escrowId].client, escrows[_escrowId].paidToClientAmount), \"Client must receive payment\");\n        }       \n\n        emit OnCancelEscrow(escrowDapp, _escrowId, escrows[_escrowId].paidToProviderAmount, _arbiter, escrows[_escrowId].paidToArbiterAmount); \n\n        return true;\n    }\n\n    /** \n      * @dev Internal update the address of price oracle\n      * @param _oracle Address\n      */\n    function updateInternalOracleAddress(address _oracle) \n    internal {\n        priceOracle = ERC20BancorPriceOracle(_oracle);\n    }\n\n    function getEscrow(uint256 _escrowId) \n    public \n    view\n    returns (\n      address client, \n      address provider, \n      uint256 amount, \n      uint256 totalValueDai, \n      uint8 status, \n      uint256 createdAt, \n      uint256 closedAt) \n      {      \n        require(_escrowId > 0 && escrows[_escrowId].createdAt > 0, \"Must be a valid escrow Id\");\n        return (\n            escrows[_escrowId].client, \n            escrows[_escrowId].provider, \n            escrows[_escrowId].amount, \n            escrows[_escrowId].totalValueDai, \n            uint8(escrows[_escrowId].status),\n            escrows[_escrowId].createdAt, \n            escrows[_escrowId].closedAt\n            );       \n    }\n\n    function getEscrowPayments(uint256 _escrowId) \n    public \n    view\n    returns (\n      uint256 amount, \n      uint256 totalValueDai, \n      uint256 payoutAmount,\n      uint256 paidToDappAmount,\n      uint256 paidToProviderAmount,\n      uint256 paidToClientAmount,      \n      uint256 paidToArbiterAmount)\n      {      \n        require(_escrowId > 0 && escrows[_escrowId].createdAt > 0, \"Must be a valid escrow Id\");\n        return (\n            escrows[_escrowId].amount, \n            escrows[_escrowId].totalValueDai, \n            escrows[_escrowId].payoutAmount, \n            escrows[_escrowId].paidToDappAmount,\n            escrows[_escrowId].paidToProviderAmount,\n            escrows[_escrowId].paidToClientAmount,        \n            escrows[_escrowId].paidToArbiterAmount\n            );       \n    }    \n}\n\n\ncontract CanWorkAdmin {\n    function addSig(address signer, bytes32 id) external returns (uint8);\n    function resetSignature(bytes32 id) external returns (bool);  \n    function getSignersCount(bytes32 id) external view returns (uint8);\n    function getSigner(bytes32 id, uint index) external view returns (address,bool);\n    function hasRole(address addr, string roleName) external view returns (bool);\n}\n\ncontract CanWorkJob is Escrow {\n    \n    using SafeMath for uint256;\n    \n    CanWorkAdmin canworkAdmin;    \n    string public constant ROLE_ADMIN = \"admin\";\n    string public constant ROLE_OWNER = \"owner\";\n\n    enum JobStatus {\n        New,\n        Completed,\n        Cancelled\n    }\n\n    struct Job {\n        bytes32 id;\n        address client;\n        address provider;\n        uint256 escrowId;\n        JobStatus status;\n        uint256 amount;\n    }\n\n    mapping(bytes32 => Job) internal jobs;\n    address dApp;\n\n    event OnCreateJob(address indexed dapp, bytes32 indexed jobId, address client, address indexed provider, uint256 totalCosts);\n    event OnCompleteJob(address indexed dapp, bytes32 indexed jobId);\n    event OnCancelJobByProvider(address indexed dapp, bytes32 indexed jobId);\n    event OnCancelJobByAdmin(address indexed dapp, bytes32 indexed jobId, uint8 payToProviderPercentage, address indexed arbiter, uint8 payToArbiterPercentage);\n\n    function initialize(ERC20 _token, CanWorkAdmin _canworkAdmin, address _dApp, address _priceOracle)\n    public \n    isInitializer(\"CanWorkJob\", \"0.1.3\") {\n        require(_token != address(0) && _canworkAdmin != address(0) && _dApp != address(0) && _priceOracle != address(0));\n        Escrow.initialize(_token, _dApp, _priceOracle);\n        canworkAdmin = CanWorkAdmin(_canworkAdmin);\n        dApp = _dApp;\n    }\n\n    /** \n      * @dev Update the address of price oracle\n      * @param _oracle Address\n      */\n    function updatePriceOracleAddress(address _oracle) \n    public {\n        require(_oracle != address(0) && _oracle != address(priceOracle), \"Must be valid, new address\");\n        require(canworkAdmin.hasRole(msg.sender, ROLE_OWNER), \"Only owner can update\");\n        updateInternalOracleAddress(_oracle);\n    }\n\n    function createJob(bytes32 _jobId, address _client, address _provider, uint256 _totalCosts) \n    public \n    returns (bool) {\n        require(_jobId[0] != 0);\n        require(jobs[_jobId].id[0] == 0);\n\n        jobs[_jobId].id = _jobId;\n        jobs[_jobId].client = _client;\n        jobs[_jobId].provider = _provider;\n        jobs[_jobId].status = JobStatus.New;\n        jobs[_jobId].amount = _totalCosts;\n        jobs[_jobId].escrowId = createEscrow(_client, _provider, _totalCosts);\n\n        emit OnCreateJob(dApp, _jobId, _client, _provider, _totalCosts);\n\n        return true;\n    }\n\n    function completeJob(bytes32 _jobId) \n    public \n    returns (bool) {  \n        require(_jobId[0] != 0);\n        require(jobs[_jobId].status == JobStatus.New);\n        require(jobs[_jobId].client == msg.sender);   \n        \n        require(completeEscrow(jobs[_jobId].escrowId));\n        \n        jobs[_jobId].status = JobStatus.Completed;\n\n        emit OnCompleteJob(dApp, _jobId);\n\n        return true;\n    }\n\n    function cancelJobByProvider(bytes32 _jobId) \n    public \n    returns (bool) {\n        require(_jobId[0] != 0);  \n        require(jobs[_jobId].status == JobStatus.New);\n        require(jobs[_jobId].provider == msg.sender);\n        \n        require(cancelEscrowByProvider(jobs[_jobId].escrowId));\n        \n        jobs[_jobId].status = JobStatus.Cancelled;\n\n        emit OnCancelJobByProvider(dApp, _jobId);\n\n        return true;\n    }\n\n    function cancelJobByAdmin(bytes32 _jobId, uint8 _payToClientPercentage, uint8 _payToProviderPercentage, address _arbiter, uint8 _payToArbiterPercentage)\n    public \n    returns (bool) {\n        require(_jobId[0] != 0, \"Must be valid jobId\");  \n        require(jobs[_jobId].status == JobStatus.New);\n        require(canworkAdmin.hasRole(msg.sender, ROLE_ADMIN));\n        require(_payToArbiterPercentage <= 5, \"Arbiter cannot receive more than 5% of funds\");\n        \n        require(cancelEscrow(jobs[_jobId].escrowId, _payToClientPercentage, _payToProviderPercentage, _arbiter, _payToArbiterPercentage));\n\n        jobs[_jobId].status = JobStatus.Cancelled;\n\n        emit OnCancelJobByAdmin(dApp, _jobId, _payToProviderPercentage, _arbiter, _payToArbiterPercentage);\n\n        return true;\n    }\n\n    function getJob(bytes32 _jobId) \n    public \n    view \n    returns (\n      address client, \n      address provider,\n      uint256 amount,\n      uint256 valueInDai, \n      uint8 status, \n      uint256 createdAt, \n      uint256 closedAt\n      ) {\n        require(_jobId[0] != 0, \"Must be valid jobId\"); \n        require(jobs[_jobId].id[0] != 0, \"Job must exist\");\n\n        return getEscrow(jobs[_jobId].escrowId);\n    }\n\n    function getJobPayments(bytes32 _jobId) \n    public \n    view \n    returns (\n      uint256 amount,  \n      uint256 valueInDai,\n      uint256 payoutAmount,\n      uint256 paidToDappAmount,\n      uint256 paidToProviderAmount,\n      uint256 paidToClientAmount,\n      uint256 paidToArbiterAmount\n      ) {\n        require(_jobId[0] != 0, \"Must be valid jobId\"); \n        require(jobs[_jobId].id[0] != 0, \"Job must exist\");\n\n        return getEscrowPayments(jobs[_jobId].escrowId);\n    } \n}\n\n\ncontract CanWork is CanWorkJob {\n    ERC20 canYaCoin;\n\n    event OnEmeregencyTransfer(address indexed toAddress, uint256 balance);\n\n    function initialize(ERC20 _token, CanWorkAdmin _canworkAdmin, address _dApp, address _priceOracle) \n    public \n    isInitializer(\"CanWork\", \"0.1.2\") {\n        require(_token != address(0) && _canworkAdmin != address(0) && _dApp != address(0), \"Addresses must be valid\");\n\n        CanWorkJob.initialize(_token, _canworkAdmin, _dApp, _priceOracle);      \n\n        canYaCoin = _token;        \n    }\n  \n    function emergencyTransfer(address toAddress) \n    public     \n    returns (bool) {\n        require(toAddress != address(0), \"Address must be valid\");\n        require(canworkAdmin.hasRole(msg.sender, ROLE_OWNER), \"Must have Owner role\");\n\n        bytes32 uniqueId = keccak256(abi.encodePacked(address(this), toAddress, \"emergencyTransfer\"));\n\n        if (canworkAdmin.getSignersCount(uniqueId) < 2) {\n            canworkAdmin.addSig(msg.sender, uniqueId);\n            return false;\n        }\n\n        canworkAdmin.addSig(msg.sender, uniqueId);\n\n        canworkAdmin.resetSignature(uniqueId);\n\n        uint256 balance = canYaCoin.balanceOf(address(this));\n        canYaCoin.transfer(toAddress, balance);\n\n        emit OnEmeregencyTransfer(toAddress, balance);\n\n        return true;\n    }\n\n    function getEmergencyTransferSignersCount(address _toAddress)\n    public \n    view \n    returns(uint)\n    {   \n        bytes32 uniqueId = keccak256(abi.encodePacked(address(this), _toAddress, \"emergencyTransfer\"));\n        return canworkAdmin.getSignersCount(uniqueId);\n    }    \n\n    function getEmergencyTransferSigner(address _toAddress, uint index)\n    public \n    view \n    returns (address,bool)\n    {\n        bytes32 uniqueId = keccak256(abi.encodePacked(address(this), _toAddress, \"emergencyTransfer\"));\n        return canworkAdmin.getSigner(uniqueId, index);\n    }  \n  \n}",
  "sourcePath": "/home/alex/projects/canya/canwork/canwork-contracts/canwork-job/contracts/xx.sol",
  "compiler": {
    "name": "solc",
    "version": "0.4.24+commit.e67f0147.Emscripten.clang"
  },
  "schemaVersion": "3.0.1",
  "updatedAt": "2019-02-19T07:05:08.731Z",
  "devdoc": {
    "methods": {
      "isMigrated(string,string)": {
        "details": "Returns true if the contract migration was applied.",
        "params": {
          "contractName": "Name of the contract.",
          "migrationId": "Identifier of the migration."
        },
        "return": "true if the contract migration was applied, false otherwise."
      },
      "updatePriceOracleAddress(address)": {
        "details": "Update the address of price oracle",
        "params": {
          "_oracle": "Address"
        }
      }
    }
  },
  "userdoc": {
    "methods": {}
  }
}