{
  "contractName": "CanWorkJob",
  "abi": [
    {
      "constant": true,
      "inputs": [
        {
          "name": "addr",
          "type": "address"
        },
        {
          "name": "roleName",
          "type": "string"
        }
      ],
      "name": "checkRole",
      "outputs": [],
      "payable": false,
      "stateMutability": "view",
      "type": "function"
    },
    {
      "constant": false,
      "inputs": [
        {
          "name": "toAddress",
          "type": "address"
        }
      ],
      "name": "emergencyTransfer",
      "outputs": [
        {
          "name": "",
          "type": "bool"
        }
      ],
      "payable": false,
      "stateMutability": "nonpayable",
      "type": "function"
    },
    {
      "constant": true,
      "inputs": [
        {
          "name": "index",
          "type": "uint256"
        }
      ],
      "name": "getAdmin",
      "outputs": [
        {
          "name": "",
          "type": "address"
        },
        {
          "name": "",
          "type": "bool"
        }
      ],
      "payable": false,
      "stateMutability": "view",
      "type": "function"
    },
    {
      "constant": false,
      "inputs": [
        {
          "name": "_owner",
          "type": "address"
        }
      ],
      "name": "removeOwner",
      "outputs": [
        {
          "name": "",
          "type": "bool"
        }
      ],
      "payable": false,
      "stateMutability": "nonpayable",
      "type": "function"
    },
    {
      "constant": false,
      "inputs": [
        {
          "name": "_admin",
          "type": "address"
        }
      ],
      "name": "removeAdmin",
      "outputs": [
        {
          "name": "",
          "type": "bool"
        }
      ],
      "payable": false,
      "stateMutability": "nonpayable",
      "type": "function"
    },
    {
      "constant": true,
      "inputs": [
        {
          "name": "roleName",
          "type": "string"
        },
        {
          "name": "index",
          "type": "uint256"
        }
      ],
      "name": "get",
      "outputs": [
        {
          "name": "",
          "type": "address"
        },
        {
          "name": "",
          "type": "bool"
        }
      ],
      "payable": false,
      "stateMutability": "view",
      "type": "function"
    },
    {
      "constant": true,
      "inputs": [
        {
          "name": "addr",
          "type": "address"
        },
        {
          "name": "roleName",
          "type": "string"
        }
      ],
      "name": "hasRole",
      "outputs": [
        {
          "name": "",
          "type": "bool"
        }
      ],
      "payable": false,
      "stateMutability": "view",
      "type": "function"
    },
    {
      "constant": true,
      "inputs": [],
      "name": "getAddress",
      "outputs": [
        {
          "name": "",
          "type": "address"
        }
      ],
      "payable": false,
      "stateMutability": "view",
      "type": "function"
    },
    {
      "constant": false,
      "inputs": [
        {
          "name": "_percentage",
          "type": "uint8"
        }
      ],
      "name": "setCanWorkPaymentPercentage",
      "outputs": [
        {
          "name": "",
          "type": "bool"
        }
      ],
      "payable": false,
      "stateMutability": "nonpayable",
      "type": "function"
    },
    {
      "constant": true,
      "inputs": [],
      "name": "getSender",
      "outputs": [
        {
          "name": "",
          "type": "address"
        }
      ],
      "payable": false,
      "stateMutability": "view",
      "type": "function"
    },
    {
      "constant": false,
      "inputs": [
        {
          "name": "_admin",
          "type": "address"
        }
      ],
      "name": "addAdmin",
      "outputs": [
        {
          "name": "",
          "type": "bool"
        }
      ],
      "payable": false,
      "stateMutability": "nonpayable",
      "type": "function"
    },
    {
      "constant": false,
      "inputs": [
        {
          "name": "_owner",
          "type": "address"
        }
      ],
      "name": "addOwner",
      "outputs": [
        {
          "name": "",
          "type": "bool"
        }
      ],
      "payable": false,
      "stateMutability": "nonpayable",
      "type": "function"
    },
    {
      "constant": true,
      "inputs": [],
      "name": "getOwnersCount",
      "outputs": [
        {
          "name": "",
          "type": "uint256"
        }
      ],
      "payable": false,
      "stateMutability": "view",
      "type": "function"
    },
    {
      "constant": true,
      "inputs": [
        {
          "name": "_escrowId",
          "type": "uint256"
        }
      ],
      "name": "getEscrow",
      "outputs": [
        {
          "name": "client",
          "type": "address"
        },
        {
          "name": "provider",
          "type": "address"
        },
        {
          "name": "amount",
          "type": "uint256"
        },
        {
          "name": "status",
          "type": "uint8"
        },
        {
          "name": "createdAt",
          "type": "uint256"
        },
        {
          "name": "closedAt",
          "type": "uint256"
        },
        {
          "name": "paidToProviderAmount",
          "type": "uint256"
        }
      ],
      "payable": false,
      "stateMutability": "view",
      "type": "function"
    },
    {
      "constant": true,
      "inputs": [
        {
          "name": "contractName",
          "type": "string"
        },
        {
          "name": "migrationId",
          "type": "string"
        }
      ],
      "name": "isMigrated",
      "outputs": [
        {
          "name": "",
          "type": "bool"
        }
      ],
      "payable": false,
      "stateMutability": "view",
      "type": "function"
    },
    {
      "constant": true,
      "inputs": [
        {
          "name": "index",
          "type": "uint256"
        }
      ],
      "name": "getOwner",
      "outputs": [
        {
          "name": "",
          "type": "address"
        },
        {
          "name": "",
          "type": "bool"
        }
      ],
      "payable": false,
      "stateMutability": "view",
      "type": "function"
    },
    {
      "constant": true,
      "inputs": [
        {
          "name": "roleName",
          "type": "string"
        }
      ],
      "name": "size",
      "outputs": [
        {
          "name": "",
          "type": "uint256"
        }
      ],
      "payable": false,
      "stateMutability": "view",
      "type": "function"
    },
    {
      "constant": true,
      "inputs": [],
      "name": "getAdminsCount",
      "outputs": [
        {
          "name": "",
          "type": "uint256"
        }
      ],
      "payable": false,
      "stateMutability": "view",
      "type": "function"
    },
    {
      "constant": true,
      "inputs": [
        {
          "name": "_escrowId",
          "type": "uint256"
        }
      ],
      "name": "getEscrowPayments",
      "outputs": [
        {
          "name": "status",
          "type": "uint8"
        },
        {
          "name": "amount",
          "type": "uint256"
        },
        {
          "name": "paidToDappAmount",
          "type": "uint256"
        },
        {
          "name": "paidToProviderAmount",
          "type": "uint256"
        },
        {
          "name": "paidToClientAmount",
          "type": "uint256"
        },
        {
          "name": "paidToArbiterAmount",
          "type": "uint256"
        }
      ],
      "payable": false,
      "stateMutability": "view",
      "type": "function"
    },
    {
      "anonymous": false,
      "inputs": [
        {
          "indexed": true,
          "name": "dapp",
          "type": "address"
        },
        {
          "indexed": true,
          "name": "jobId",
          "type": "bytes32"
        },
        {
          "indexed": false,
          "name": "client",
          "type": "address"
        },
        {
          "indexed": true,
          "name": "provider",
          "type": "address"
        },
        {
          "indexed": false,
          "name": "totalCosts",
          "type": "uint256"
        }
      ],
      "name": "OnCreateJob",
      "type": "event"
    },
    {
      "anonymous": false,
      "inputs": [
        {
          "indexed": true,
          "name": "dapp",
          "type": "address"
        },
        {
          "indexed": true,
          "name": "jobId",
          "type": "bytes32"
        }
      ],
      "name": "OnCompleteJob",
      "type": "event"
    },
    {
      "anonymous": false,
      "inputs": [
        {
          "indexed": true,
          "name": "dapp",
          "type": "address"
        },
        {
          "indexed": true,
          "name": "jobId",
          "type": "bytes32"
        }
      ],
      "name": "OnCancelJobByProvider",
      "type": "event"
    },
    {
      "anonymous": false,
      "inputs": [
        {
          "indexed": true,
          "name": "dapp",
          "type": "address"
        },
        {
          "indexed": true,
          "name": "jobId",
          "type": "bytes32"
        },
        {
          "indexed": false,
          "name": "payToProviderAmount",
          "type": "uint256"
        },
        {
          "indexed": true,
          "name": "arbiter",
          "type": "address"
        },
        {
          "indexed": false,
          "name": "payToArbiterAmount",
          "type": "uint256"
        }
      ],
      "name": "OnCancelJobByAdmin",
      "type": "event"
    },
    {
      "anonymous": false,
      "inputs": [
        {
          "indexed": true,
          "name": "toAddress",
          "type": "address"
        },
        {
          "indexed": false,
          "name": "balance",
          "type": "uint256"
        }
      ],
      "name": "OnEmeregencyTransfer",
      "type": "event"
    },
    {
      "anonymous": false,
      "inputs": [
        {
          "indexed": false,
          "name": "percentage",
          "type": "uint8"
        }
      ],
      "name": "OnSetCanWorkPaymentPercentage",
      "type": "event"
    },
    {
      "anonymous": false,
      "inputs": [
        {
          "indexed": true,
          "name": "token",
          "type": "address"
        },
        {
          "indexed": true,
          "name": "dApp",
          "type": "address"
        }
      ],
      "name": "OnInitialize",
      "type": "event"
    },
    {
      "anonymous": false,
      "inputs": [
        {
          "indexed": true,
          "name": "dapp",
          "type": "address"
        },
        {
          "indexed": true,
          "name": "client",
          "type": "address"
        },
        {
          "indexed": true,
          "name": "provider",
          "type": "address"
        },
        {
          "indexed": false,
          "name": "amount",
          "type": "uint256"
        },
        {
          "indexed": false,
          "name": "payToDappAmount",
          "type": "uint256"
        }
      ],
      "name": "OnCreateEscrow",
      "type": "event"
    },
    {
      "anonymous": false,
      "inputs": [
        {
          "indexed": true,
          "name": "dapp",
          "type": "address"
        },
        {
          "indexed": true,
          "name": "escrowId",
          "type": "uint256"
        }
      ],
      "name": "OnCompleteEscrow",
      "type": "event"
    },
    {
      "anonymous": false,
      "inputs": [
        {
          "indexed": true,
          "name": "dapp",
          "type": "address"
        },
        {
          "indexed": true,
          "name": "escrowId",
          "type": "uint256"
        }
      ],
      "name": "OnCancelEscrowByProvider",
      "type": "event"
    },
    {
      "anonymous": false,
      "inputs": [
        {
          "indexed": true,
          "name": "dapp",
          "type": "address"
        },
        {
          "indexed": true,
          "name": "escrowId",
          "type": "uint256"
        },
        {
          "indexed": false,
          "name": "payToProviderAmount",
          "type": "uint256"
        },
        {
          "indexed": true,
          "name": "arbiter",
          "type": "address"
        },
        {
          "indexed": false,
          "name": "payToArbiterAmount",
          "type": "uint256"
        }
      ],
      "name": "OnCancelEscrow",
      "type": "event"
    },
    {
      "anonymous": false,
      "inputs": [
        {
          "indexed": false,
          "name": "contractName",
          "type": "string"
        },
        {
          "indexed": false,
          "name": "migrationId",
          "type": "string"
        }
      ],
      "name": "Migrated",
      "type": "event"
    },
    {
      "anonymous": false,
      "inputs": [
        {
          "indexed": false,
          "name": "addr",
          "type": "address"
        },
        {
          "indexed": false,
          "name": "roleName",
          "type": "string"
        }
      ],
      "name": "RoleAdded",
      "type": "event"
    },
    {
      "anonymous": false,
      "inputs": [
        {
          "indexed": false,
          "name": "addr",
          "type": "address"
        },
        {
          "indexed": false,
          "name": "roleName",
          "type": "string"
        }
      ],
      "name": "RoleRemoved",
      "type": "event"
    },
    {
      "constant": false,
      "inputs": [
        {
          "name": "_token",
          "type": "address"
        },
        {
          "name": "_dApp",
          "type": "address"
        },
        {
          "name": "_owner1",
          "type": "address"
        },
        {
          "name": "_owner2",
          "type": "address"
        },
        {
          "name": "_owner3",
          "type": "address"
        }
      ],
      "name": "initialize",
      "outputs": [],
      "payable": false,
      "stateMutability": "nonpayable",
      "type": "function"
    },
    {
      "constant": false,
      "inputs": [
        {
          "name": "_token",
          "type": "address"
        },
        {
          "name": "initialOwner1",
          "type": "address"
        },
        {
          "name": "initialOwner2",
          "type": "address"
        },
        {
          "name": "initialOwner3",
          "type": "address"
        }
      ],
      "name": "initialize",
      "outputs": [],
      "payable": false,
      "stateMutability": "nonpayable",
      "type": "function"
    },
    {
      "constant": false,
      "inputs": [
        {
          "name": "_jobId",
          "type": "bytes32"
        },
        {
          "name": "_client",
          "type": "address"
        },
        {
          "name": "_provider",
          "type": "address"
        },
        {
          "name": "_totalCosts",
          "type": "uint256"
        }
      ],
      "name": "createJob",
      "outputs": [
        {
          "name": "",
          "type": "bool"
        }
      ],
      "payable": false,
      "stateMutability": "nonpayable",
      "type": "function"
    },
    {
      "constant": false,
      "inputs": [
        {
          "name": "_jobId",
          "type": "bytes32"
        }
      ],
      "name": "completeJob",
      "outputs": [
        {
          "name": "",
          "type": "bool"
        }
      ],
      "payable": false,
      "stateMutability": "nonpayable",
      "type": "function"
    },
    {
      "constant": false,
      "inputs": [
        {
          "name": "_jobId",
          "type": "bytes32"
        }
      ],
      "name": "cancelJobByProvider",
      "outputs": [
        {
          "name": "",
          "type": "bool"
        }
      ],
      "payable": false,
      "stateMutability": "nonpayable",
      "type": "function"
    },
    {
      "constant": false,
      "inputs": [
        {
          "name": "_jobId",
          "type": "bytes32"
        },
        {
          "name": "_payToProviderAmount",
          "type": "uint256"
        },
        {
          "name": "_arbiter",
          "type": "address"
        },
        {
          "name": "_payToArbiterAmount",
          "type": "uint256"
        }
      ],
      "name": "cancelJobByAdmin",
      "outputs": [
        {
          "name": "",
          "type": "bool"
        }
      ],
      "payable": false,
      "stateMutability": "nonpayable",
      "type": "function"
    },
    {
      "constant": true,
      "inputs": [
        {
          "name": "_jobId",
          "type": "bytes32"
        }
      ],
      "name": "getJob",
      "outputs": [
        {
          "name": "client",
          "type": "address"
        },
        {
          "name": "provider",
          "type": "address"
        },
        {
          "name": "amount",
          "type": "uint256"
        },
        {
          "name": "status",
          "type": "uint8"
        },
        {
          "name": "createdAt",
          "type": "uint256"
        },
        {
          "name": "closedAt",
          "type": "uint256"
        },
        {
          "name": "paidToProviderAmount",
          "type": "uint256"
        }
      ],
      "payable": false,
      "stateMutability": "view",
      "type": "function"
    },
    {
      "constant": true,
      "inputs": [
        {
          "name": "_jobId",
          "type": "bytes32"
        }
      ],
      "name": "getJobPayments",
      "outputs": [
        {
          "name": "status",
          "type": "uint8"
        },
        {
          "name": "amount",
          "type": "uint256"
        },
        {
          "name": "paidToDappAmount",
          "type": "uint256"
        },
        {
          "name": "paidToProviderAmount",
          "type": "uint256"
        },
        {
          "name": "paidToClientAmount",
          "type": "uint256"
        },
        {
          "name": "paidToArbiterAmount",
          "type": "uint256"
        }
      ],
      "payable": false,
      "stateMutability": "view",
      "type": "function"
    }
  ],
  "bytecode": "0x6080604052600060045534801561001557600080fd5b5061559d806100256000396000f30060806040526004361061015f576000357c0100000000000000000000000000000000000000000000000000000000900463ffffffff1680630988ca8c146101645780630e501834146101ed578063111fd88b146102485780631459457a146102c0578063173825d9146103835780631785f53c146103de5780631be5e7ed14610439578063217fe6c6146104f757806338cc48311461059857806341defd82146105ef5780634b9dce0d1461066c5780635e01eb5a146106b45780636e6bfca01461070b57806370480275146107545780637065cb48146107af57806373ff81cc1461080a5780637d19e59614610835578063991e0139146108fe578063afcfad6e14610947578063c0bac1a8146109b5578063c41a360a14610a7c578063ce86990314610af4578063e7acaa1e14610b71578063e804152214610c04578063f729cf0d14610c2f578063f8c8765e14610cfc578063fd232b5914610d9f575b600080fd5b34801561017057600080fd5b506101eb600480360381019080803573ffffffffffffffffffffffffffffffffffffffff169060200190929190803590602001908201803590602001908080601f0160208091040260200160405190810160405280939291908181526020018383808284378201915050505050509192919290505050610e09565b005b3480156101f957600080fd5b5061022e600480360381019080803573ffffffffffffffffffffffffffffffffffffffff169060200190929190505050610e8a565b604051808215151515815260200191505060405180910390f35b34801561025457600080fd5b50610273600480360381019080803590602001909291905050506112c8565b604051808373ffffffffffffffffffffffffffffffffffffffff1673ffffffffffffffffffffffffffffffffffffffff168152602001821515151581526020019250505060405180910390f35b3480156102cc57600080fd5b50610381600480360381019080803573ffffffffffffffffffffffffffffffffffffffff169060200190929190803573ffffffffffffffffffffffffffffffffffffffff169060200190929190803573ffffffffffffffffffffffffffffffffffffffff169060200190929190803573ffffffffffffffffffffffffffffffffffffffff169060200190929190803573ffffffffffffffffffffffffffffffffffffffff169060200190929190505050611313565b005b34801561038f57600080fd5b506103c4600480360381019080803573ffffffffffffffffffffffffffffffffffffffff16906020019092919050505061170b565b604051808215151515815260200191505060405180910390f35b3480156103ea57600080fd5b5061041f600480360381019080803573ffffffffffffffffffffffffffffffffffffffff169060200190929190505050611986565b604051808215151515815260200191505060405180910390f35b34801561044557600080fd5b506104aa600480360381019080803590602001908201803590602001908080601f016020809104026020016040519081016040528093929190818152602001838380828437820191505050505050919291929080359060200190929190505050611a97565b604051808373ffffffffffffffffffffffffffffffffffffffff1673ffffffffffffffffffffffffffffffffffffffff168152602001821515151581526020019250505060405180910390f35b34801561050357600080fd5b5061057e600480360381019080803573ffffffffffffffffffffffffffffffffffffffff169060200190929190803590602001908201803590602001908080601f0160208091040260200160405190810160405280939291908181526020018383808284378201915050505050509192919290505050611b22565b604051808215151515815260200191505060405180910390f35b3480156105a457600080fd5b506105ad611ba9565b604051808273ffffffffffffffffffffffffffffffffffffffff1673ffffffffffffffffffffffffffffffffffffffff16815260200191505060405180910390f35b3480156105fb57600080fd5b50610652600480360381019080803560001916906020019092919080359060200190929190803573ffffffffffffffffffffffffffffffffffffffff16906020019092919080359060200190929190505050611bb1565b604051808215151515815260200191505060405180910390f35b34801561067857600080fd5b5061069a600480360381019080803560ff169060200190929190505050611e36565b604051808215151515815260200191505060405180910390f35b3480156106c057600080fd5b506106c9611efd565b604051808273ffffffffffffffffffffffffffffffffffffffff1673ffffffffffffffffffffffffffffffffffffffff16815260200191505060405180910390f35b34801561071757600080fd5b5061073a6004803603810190808035600019169060200190929190505050611f05565b604051808215151515815260200191505060405180910390f35b34801561076057600080fd5b50610795600480360381019080803573ffffffffffffffffffffffffffffffffffffffff169060200190929190505050612138565b604051808215151515815260200191505060405180910390f35b3480156107bb57600080fd5b506107f0600480360381019080803573ffffffffffffffffffffffffffffffffffffffff16906020019092919050505061224a565b604051808215151515815260200191505060405180910390f35b34801561081657600080fd5b5061081f6124c6565b6040518082815260200191505060405180910390f35b34801561084157600080fd5b506108606004803603810190808035906020019092919050505061250b565b604051808873ffffffffffffffffffffffffffffffffffffffff1673ffffffffffffffffffffffffffffffffffffffff1681526020018773ffffffffffffffffffffffffffffffffffffffff1673ffffffffffffffffffffffffffffffffffffffff1681526020018681526020018560ff1660ff16815260200184815260200183815260200182815260200197505050505050505060405180910390f35b34801561090a57600080fd5b5061092d6004803603810190808035600019169060200190929190505050612658565b604051808215151515815260200191505060405180910390f35b34801561095357600080fd5b50610976600480360381019080803560001916906020019092919050505061288b565b604051808760ff1660ff168152602001868152602001858152602001848152602001838152602001828152602001965050505050505060405180910390f35b3480156109c157600080fd5b50610a62600480360381019080803590602001908201803590602001908080601f0160208091040260200160405190810160405280939291908181526020018383808284378201915050505050509192919290803590602001908201803590602001908080601f01602080910402602001604051908101604052809392919081815260200183838082843782019150505050505091929192905050506129f8565b604051808215151515815260200191505060405180910390f35b348015610a8857600080fd5b50610aa760048036038101908080359060200190929190505050612ae4565b604051808373ffffffffffffffffffffffffffffffffffffffff1673ffffffffffffffffffffffffffffffffffffffff168152602001821515151581526020019250505060405180910390f35b348015610b0057600080fd5b50610b5b600480360381019080803590602001908201803590602001908080601f0160208091040260200160405190810160405280939291908181526020018383808284378201915050505050509192919290505050612b2f565b6040518082815260200191505060405180910390f35b348015610b7d57600080fd5b50610bea6004803603810190808035600019169060200190929190803573ffffffffffffffffffffffffffffffffffffffff169060200190929190803573ffffffffffffffffffffffffffffffffffffffff16906020019092919080359060200190929190505050612bab565b604051808215151515815260200191505060405180910390f35b348015610c1057600080fd5b50610c19612f4e565b6040518082815260200191505060405180910390f35b348015610c3b57600080fd5b50610c5e6004803603810190808035600019169060200190929190505050612f93565b604051808873ffffffffffffffffffffffffffffffffffffffff1673ffffffffffffffffffffffffffffffffffffffff1681526020018773ffffffffffffffffffffffffffffffffffffffff1673ffffffffffffffffffffffffffffffffffffffff1681526020018681526020018560ff1660ff16815260200184815260200183815260200182815260200197505050505050505060405180910390f35b348015610d0857600080fd5b50610d9d600480360381019080803573ffffffffffffffffffffffffffffffffffffffff169060200190929190803573ffffffffffffffffffffffffffffffffffffffff169060200190929190803573ffffffffffffffffffffffffffffffffffffffff169060200190929190803573ffffffffffffffffffffffffffffffffffffffff169060200190929190505050613105565b005b348015610dab57600080fd5b50610dca60048036038101908080359060200190929190505050613586565b604051808760ff1660ff168152602001868152602001858152602001848152602001838152602001828152602001965050505050505060405180910390f35b610e86826001836040518082805190602001908083835b602083101515610e455780518252602082019150602081019050602083039250610e20565b6001836020036101000a038019825116818451168082178552505050505050905001915050908152602001604051809103902061367790919063ffffffff16565b5050565b60008060006040805190810160405280600581526020017f6f776e6572000000000000000000000000000000000000000000000000000000815250610ecf3382610e09565b600073ffffffffffffffffffffffffffffffffffffffff168573ffffffffffffffffffffffffffffffffffffffff1614151515610f0b57600080fd5b3085604051602001808373ffffffffffffffffffffffffffffffffffffffff1673ffffffffffffffffffffffffffffffffffffffff166c010000000000000000000000000281526014018273ffffffffffffffffffffffffffffffffffffffff1673ffffffffffffffffffffffffffffffffffffffff166c01000000000000000000000000028152601401807f656d657267656e63795472616e73666572000000000000000000000000000000815250601101925050506040516020818303038152906040526040518082805190602001908083835b6020831015156110065780518252602082019150602081019050602083039250610fe1565b6001836020036101000a03801982511681845116808217855250505050505090500191505060405180910390209250600261104084613690565b60ff16101561105d5761105333846136c4565b50600093506112c0565b61106733846136c4565b50611071836138ec565b50600760019054906101000a900473ffffffffffffffffffffffffffffffffffffffff1673ffffffffffffffffffffffffffffffffffffffff166370a08231306040518263ffffffff167c0100000000000000000000000000000000000000000000000000000000028152600401808273ffffffffffffffffffffffffffffffffffffffff1673ffffffffffffffffffffffffffffffffffffffff168152602001915050602060405180830381600087803b15801561112f57600080fd5b505af1158015611143573d6000803e3d6000fd5b505050506040513d602081101561115957600080fd5b81019080805190602001909291905050509150600760019054906101000a900473ffffffffffffffffffffffffffffffffffffffff1673ffffffffffffffffffffffffffffffffffffffff1663a9059cbb86846040518363ffffffff167c0100000000000000000000000000000000000000000000000000000000028152600401808373ffffffffffffffffffffffffffffffffffffffff1673ffffffffffffffffffffffffffffffffffffffff16815260200182815260200192505050602060405180830381600087803b15801561123157600080fd5b505af1158015611245573d6000803e3d6000fd5b505050506040513d602081101561125b57600080fd5b8101908080519060200190929190505050508473ffffffffffffffffffffffffffffffffffffffff167fd52f490db8aced6e82c33e39d01bca1886f5e9579c9e3347e8a89d60ad39bb09836040518082815260200191505060405180910390a2600193505b505050919050565b60008061130a6040805190810160405280600581526020017f61646d696e00000000000000000000000000000000000000000000000000000081525084611a97565b91509150915091565b6040805190810160405280600a81526020017f43616e576f726b4a6f62000000000000000000000000000000000000000000008152506040805190810160405280600581526020017f302e312e3300000000000000000000000000000000000000000000000000000081525061138982826129f8565b15151561139557600080fd5b600073ffffffffffffffffffffffffffffffffffffffff168773ffffffffffffffffffffffffffffffffffffffff16141580156113ff5750600073ffffffffffffffffffffffffffffffffffffffff168673ffffffffffffffffffffffffffffffffffffffff1614155b80156114385750600073ffffffffffffffffffffffffffffffffffffffff168573ffffffffffffffffffffffffffffffffffffffff1614155b80156114715750600073ffffffffffffffffffffffffffffffffffffffff168473ffffffffffffffffffffffffffffffffffffffff1614155b80156114aa5750600073ffffffffffffffffffffffffffffffffffffffff168373ffffffffffffffffffffffffffffffffffffffff1614155b15156114b557600080fd5b85600960006101000a81548173ffffffffffffffffffffffffffffffffffffffff021916908373ffffffffffffffffffffffffffffffffffffffff1602179055506115008787613a36565b61150c87868686613105565b7fdd117a11c22118c9dee4b5a67ce578bc44529dce21ee0ccc439588fbb9fb4ea38282604051808060200180602001838103835285818151815260200191508051906020019080838360005b83811015611573578082015181840152602081019050611558565b50505050905090810190601f1680156115a05780820380516001836020036101000a031916815260200191505b50838103825284818151815260200191508051906020019080838360005b838110156115d95780820151818401526020810190506115be565b50505050905090810190601f1680156116065780820380516001836020036101000a031916815260200191505b5094505050505060405180910390a160016002836040518082805190602001908083835b60208310151561164f578051825260208201915060208101905060208303925061162a565b6001836020036101000a0380198251168184511680821785525050505050509050019150509081526020016040518091039020826040518082805190602001908083835b6020831015156116b85780518252602082019150602081019050602083039250611693565b6001836020036101000a038019825116818451168082178552505050505050905001915050908152602001604051809103902060006101000a81548160ff02191690831515021790555050505050505050565b6000806040805190810160405280600581526020017f6f776e657200000000000000000000000000000000000000000000000000000081525061174e3382610e09565b600073ffffffffffffffffffffffffffffffffffffffff168473ffffffffffffffffffffffffffffffffffffffff161415151561178a57600080fd5b6117c9846040805190810160405280600581526020017f6f776e6572000000000000000000000000000000000000000000000000000000815250611b22565b15156117d457600080fd5b3084604051602001808373ffffffffffffffffffffffffffffffffffffffff1673ffffffffffffffffffffffffffffffffffffffff166c010000000000000000000000000281526014018273ffffffffffffffffffffffffffffffffffffffff1673ffffffffffffffffffffffffffffffffffffffff166c01000000000000000000000000028152601401807f72656d6f76654f776e6572000000000000000000000000000000000000000000815250600b01925050506040516020818303038152906040526040518082805190602001908083835b6020831015156118cf57805182526020820191506020810190506020830392506118aa565b6001836020036101000a03801982511681845116808217855250505050505090500191505060405180910390209150600261190983613690565b60ff1610156119265761191c33836136c4565b506000925061197f565b61193033836136c4565b5061193a826138ec565b5061197a846040805190810160405280600581526020017f6f776e6572000000000000000000000000000000000000000000000000000000815250613e05565b600192505b5050919050565b60006040805190810160405280600581526020017f6f776e65720000000000000000000000000000000000000000000000000000008152506119c83382610e09565b600073ffffffffffffffffffffffffffffffffffffffff168373ffffffffffffffffffffffffffffffffffffffff1614151515611a0457600080fd5b611a43836040805190810160405280600581526020017f61646d696e000000000000000000000000000000000000000000000000000000815250611b22565b1515611a4e57600080fd5b611a8d836040805190810160405280600581526020017f61646d696e000000000000000000000000000000000000000000000000000000815250613e05565b6001915050919050565b600080611b17836001866040518082805190602001908083835b602083101515611ad65780518252602082019150602081019050602083039250611ab1565b6001836020036101000a0380198251168184511680821785525050505050509050019150509081526020016040518091039020613f5690919063ffffffff16565b915091509250929050565b6000611ba1836001846040518082805190602001908083835b602083101515611b605780518252602082019150602081019050602083039250611b3b565b6001836020036101000a0380198251168184511680821785525050505050509050019150509081526020016040518091039020613ff890919063ffffffff16565b905092915050565b600030905090565b6000806040805190810160405280600581526020017f61646d696e000000000000000000000000000000000000000000000000000000815250611bf43382610e09565b60007f010000000000000000000000000000000000000000000000000000000000000002876000602081101515611c2757fe5b1a7f0100000000000000000000000000000000000000000000000000000000000000027effffffffffffffffffffffffffffffffffffffffffffffffffffffffffffff191614151515611c7957600080fd5b60006002811115611c8657fe5b60086000896000191660001916815260200190815260200160002060040160009054906101000a900460ff166002811115611cbd57fe5b141515611cc957600080fd5b611d0e6064611d006005600860008c600019166000191681526020019081526020016000206005015461405490919063ffffffff16565b61408c90919063ffffffff16565b9150818411151515611d1f57600080fd5b611d49600860008960001916600019168152602001908152602001600020600301548787876140a2565b1515611d5457600080fd5b600260086000896000191660001916815260200190815260200160002060040160006101000a81548160ff02191690836002811115611d8f57fe5b02179055508473ffffffffffffffffffffffffffffffffffffffff168760001916600960009054906101000a900473ffffffffffffffffffffffffffffffffffffffff1673ffffffffffffffffffffffffffffffffffffffff167f9718f646cc6091a3c9858b508924d4fb6e582b56f9de81537654a535d65cf6328988604051808381526020018281526020019250505060405180910390a4600192505050949350505050565b60006040805190810160405280600581526020017f6f776e6572000000000000000000000000000000000000000000000000000000815250611e783382610e09565b60008360ff1610158015611e90575060648360ff1611155b1515611e9b57600080fd5b82600760006101000a81548160ff021916908360ff1602179055507fdf97dce213cb49878ba72da3d4ab99c33bb8c26f21ed267e55de74c4a5a6cb9983604051808260ff1660ff16815260200191505060405180910390a16001915050919050565b600033905090565b6000807f010000000000000000000000000000000000000000000000000000000000000002826000602081101515611f3957fe5b1a7f0100000000000000000000000000000000000000000000000000000000000000027effffffffffffffffffffffffffffffffffffffffffffffffffffffffffffff191614151515611f8b57600080fd5b60006002811115611f9857fe5b60086000846000191660001916815260200190815260200160002060040160009054906101000a900460ff166002811115611fcf57fe5b141515611fdb57600080fd5b3373ffffffffffffffffffffffffffffffffffffffff1660086000846000191660001916815260200190815260200160002060020160009054906101000a900473ffffffffffffffffffffffffffffffffffffffff1673ffffffffffffffffffffffffffffffffffffffff1614151561205357600080fd5b61207a60086000846000191660001916815260200190815260200160002060030154614722565b151561208557600080fd5b600260086000846000191660001916815260200190815260200160002060040160006101000a81548160ff021916908360028111156120c057fe5b02179055508160001916600960009054906101000a900473ffffffffffffffffffffffffffffffffffffffff1673ffffffffffffffffffffffffffffffffffffffff167f9deeb35dcae810f88ff11beec766eaa1b2e9f1ef7bcefbb8f2a3f91fdf98c42660405160405180910390a360019050919050565b60006040805190810160405280600581526020017f6f776e657200000000000000000000000000000000000000000000000000000081525061217a3382610e09565b600073ffffffffffffffffffffffffffffffffffffffff168373ffffffffffffffffffffffffffffffffffffffff16141515156121b657600080fd5b6121f5836040805190810160405280600581526020017f61646d696e000000000000000000000000000000000000000000000000000000815250611b22565b15151561220157600080fd5b612240836040805190810160405280600581526020017f61646d696e000000000000000000000000000000000000000000000000000000815250614a4d565b6001915050919050565b6000806040805190810160405280600581526020017f6f776e657200000000000000000000000000000000000000000000000000000081525061228d3382610e09565b600073ffffffffffffffffffffffffffffffffffffffff168473ffffffffffffffffffffffffffffffffffffffff16141515156122c957600080fd5b612308846040805190810160405280600581526020017f6f776e6572000000000000000000000000000000000000000000000000000000815250611b22565b15151561231457600080fd5b3084604051602001808373ffffffffffffffffffffffffffffffffffffffff1673ffffffffffffffffffffffffffffffffffffffff166c010000000000000000000000000281526014018273ffffffffffffffffffffffffffffffffffffffff1673ffffffffffffffffffffffffffffffffffffffff166c01000000000000000000000000028152601401807f6164644f776e6572000000000000000000000000000000000000000000000000815250600801925050506040516020818303038152906040526040518082805190602001908083835b60208310151561240f57805182526020820191506020810190506020830392506123ea565b6001836020036101000a03801982511681845116808217855250505050505090500191505060405180910390209150600261244983613690565b60ff1610156124665761245c33836136c4565b50600092506124bf565b61247033836136c4565b5061247a826138ec565b506124ba846040805190810160405280600581526020017f6f776e6572000000000000000000000000000000000000000000000000000000815250614a4d565b600192505b5050919050565b60006125066040805190810160405280600581526020017f6f776e6572000000000000000000000000000000000000000000000000000000815250612b2f565b905090565b6000806000806000806000808811801561253b57506000600660008a815260200190815260200160002060050154115b151561254657600080fd5b6006600089815260200190815260200160002060010160009054906101000a900473ffffffffffffffffffffffffffffffffffffffff16600660008a815260200190815260200160002060020160009054906101000a900473ffffffffffffffffffffffffffffffffffffffff16600660008b815260200190815260200160002060030154600660008c815260200190815260200160002060040160009054906101000a900460ff1660028111156125fa57fe5b600660008d815260200190815260200160002060050154600660008e815260200190815260200160002060060154600660008f8152602001908152602001600020600801549650965096509650965096509650919395979092949650565b6000807f01000000000000000000000000000000000000000000000000000000000000000282600060208110151561268c57fe5b1a7f0100000000000000000000000000000000000000000000000000000000000000027effffffffffffffffffffffffffffffffffffffffffffffffffffffffffffff1916141515156126de57600080fd5b600060028111156126eb57fe5b60086000846000191660001916815260200190815260200160002060040160009054906101000a900460ff16600281111561272257fe5b14151561272e57600080fd5b3373ffffffffffffffffffffffffffffffffffffffff1660086000846000191660001916815260200190815260200160002060010160009054906101000a900473ffffffffffffffffffffffffffffffffffffffff1673ffffffffffffffffffffffffffffffffffffffff161415156127a657600080fd5b6127cd60086000846000191660001916815260200190815260200160002060030154614bb4565b15156127d857600080fd5b600160086000846000191660001916815260200190815260200160002060040160006101000a81548160ff0219169083600281111561281357fe5b02179055508160001916600960009054906101000a900473ffffffffffffffffffffffffffffffffffffffff1673ffffffffffffffffffffffffffffffffffffffff167f5fa8e6f4fbdedc8f67f68ed5dd5a194353476578eb9231d8925543e55fec008a60405160405180910390a360019050919050565b60008060008060008060007f0100000000000000000000000000000000000000000000000000000000000000028760006020811015156128c757fe5b1a7f0100000000000000000000000000000000000000000000000000000000000000027effffffffffffffffffffffffffffffffffffffffffffffffffffffffffffff19161415151561291957600080fd5b60007f01000000000000000000000000000000000000000000000000000000000000000260086000896000191660001916815260200190815260200160002060000154600060208110151561296a57fe5b1a7f0100000000000000000000000000000000000000000000000000000000000000027effffffffffffffffffffffffffffffffffffffffffffffffffffffffffffff1916141515156129bc57600080fd5b6129e360086000896000191660001916815260200190815260200160002060030154613586565b95509550955095509550955091939550919395565b60006002836040518082805190602001908083835b602083101515612a325780518252602082019150602081019050602083039250612a0d565b6001836020036101000a0380198251168184511680821785525050505050509050019150509081526020016040518091039020826040518082805190602001908083835b602083101515612a9b5780518252602082019150602081019050602083039250612a76565b6001836020036101000a038019825116818451168082178552505050505050905001915050908152602001604051809103902060009054906101000a900460ff16905092915050565b600080612b266040805190810160405280600581526020017f6f776e657200000000000000000000000000000000000000000000000000000081525084611a97565b91509150915091565b6000612ba46001836040518082805190602001908083835b602083101515612b6c5780518252602082019150602081019050602083039250612b47565b6001836020036101000a0380198251168184511680821785525050505050509050019150509081526020016040518091039020614edf565b9050919050565b60008060007f010000000000000000000000000000000000000000000000000000000000000002866000602081101515612be157fe5b1a7f0100000000000000000000000000000000000000000000000000000000000000027effffffffffffffffffffffffffffffffffffffffffffffffffffffffffffff191614151515612c3357600080fd5b60007f010000000000000000000000000000000000000000000000000000000000000002600860008860001916600019168152602001908152602001600020600001546000602081101515612c8457fe5b1a7f0100000000000000000000000000000000000000000000000000000000000000027effffffffffffffffffffffffffffffffffffffffffffffffffffffffffffff1916141515612cd557600080fd5b612d0d6064612cff600760009054906101000a900460ff1660ff168661405490919063ffffffff16565b61408c90919063ffffffff16565b90508560086000886000191660001916815260200190815260200160002060000181600019169055508460086000886000191660001916815260200190815260200160002060010160006101000a81548173ffffffffffffffffffffffffffffffffffffffff021916908373ffffffffffffffffffffffffffffffffffffffff1602179055508360086000886000191660001916815260200190815260200160002060020160006101000a81548173ffffffffffffffffffffffffffffffffffffffff021916908373ffffffffffffffffffffffffffffffffffffffff160217905550600060086000886000191660001916815260200190815260200160002060040160006101000a81548160ff02191690836002811115612e2b57fe5b02179055508260086000886000191660001916815260200190815260200160002060050181905550612e5f85858584614ef0565b600860008860001916600019168152602001908152602001600020600301819055508373ffffffffffffffffffffffffffffffffffffffff168660001916600960009054906101000a900473ffffffffffffffffffffffffffffffffffffffff1673ffffffffffffffffffffffffffffffffffffffff167f06ec2805bab16df077e1bf66c474762caec30f56f6c01e4e673aa60b8dca979e8887604051808373ffffffffffffffffffffffffffffffffffffffff1673ffffffffffffffffffffffffffffffffffffffff1681526020018281526020019250505060405180910390a46001915050949350505050565b6000612f8e6040805190810160405280600581526020017f61646d696e000000000000000000000000000000000000000000000000000000815250612b2f565b905090565b6000806000806000806000807f010000000000000000000000000000000000000000000000000000000000000002886000602081101515612fd057fe5b1a7f0100000000000000000000000000000000000000000000000000000000000000027effffffffffffffffffffffffffffffffffffffffffffffffffffffffffffff19161415151561302257600080fd5b60007f010000000000000000000000000000000000000000000000000000000000000002600860008a6000191660001916815260200190815260200160002060000154600060208110151561307357fe5b1a7f0100000000000000000000000000000000000000000000000000000000000000027effffffffffffffffffffffffffffffffffffffffffffffffffffffffffffff1916141515156130c557600080fd5b6130ec600860008a600019166000191681526020019081526020016000206003015461250b565b9650965096509650965096509650919395979092949650565b6040805190810160405280600c81526020017f43616e576f726b41646d696e00000000000000000000000000000000000000008152506040805190810160405280600581526020017f302e312e3300000000000000000000000000000000000000000000000000000081525061317b82826129f8565b15151561318757600080fd5b600073ffffffffffffffffffffffffffffffffffffffff168673ffffffffffffffffffffffffffffffffffffffff16141580156131f15750600073ffffffffffffffffffffffffffffffffffffffff168573ffffffffffffffffffffffffffffffffffffffff1614155b801561322a5750600073ffffffffffffffffffffffffffffffffffffffff168473ffffffffffffffffffffffffffffffffffffffff1614155b80156132635750600073ffffffffffffffffffffffffffffffffffffffff168373ffffffffffffffffffffffffffffffffffffffff1614155b151561326e57600080fd5b85600760016101000a81548173ffffffffffffffffffffffffffffffffffffffff021916908373ffffffffffffffffffffffffffffffffffffffff1602179055506001600760006101000a81548160ff021916908360ff16021790555061330a856040805190810160405280600581526020017f6f776e6572000000000000000000000000000000000000000000000000000000815250614a4d565b613349846040805190810160405280600581526020017f6f776e6572000000000000000000000000000000000000000000000000000000815250614a4d565b613388836040805190810160405280600581526020017f6f776e6572000000000000000000000000000000000000000000000000000000815250614a4d565b7fdd117a11c22118c9dee4b5a67ce578bc44529dce21ee0ccc439588fbb9fb4ea38282604051808060200180602001838103835285818151815260200191508051906020019080838360005b838110156133ef5780820151818401526020810190506133d4565b50505050905090810190601f16801561341c5780820380516001836020036101000a031916815260200191505b50838103825284818151815260200191508051906020019080838360005b8381101561345557808201518184015260208101905061343a565b50505050905090810190601f1680156134825780820380516001836020036101000a031916815260200191505b5094505050505060405180910390a160016002836040518082805190602001908083835b6020831015156134cb57805182526020820191506020810190506020830392506134a6565b6001836020036101000a0380198251168184511680821785525050505050509050019150509081526020016040518091039020826040518082805190602001908083835b602083101515613534578051825260208201915060208101905060208303925061350f565b6001836020036101000a038019825116818451168082178552505050505050905001915050908152602001604051809103902060006101000a81548160ff021916908315150217905550505050505050565b6000806000806000806000871180156135b5575060006006600089815260200190815260200160002060050154115b15156135c057600080fd5b6006600088815260200190815260200160002060040160009054906101000a900460ff1660028111156135ef57fe5b6006600089815260200190815260200160002060030154600660008a815260200190815260200160002060070154600660008b815260200190815260200160002060080154600660008c815260200190815260200160002060090154600660008d8152602001908152602001600020600a015495509550955095509550955091939550919395565b6136818282613ff8565b151561368c57600080fd5b5050565b6000806000836000191660001916815260200190815260200160002060020160009054906101000a900460ff169050919050565b60008073ffffffffffffffffffffffffffffffffffffffff168373ffffffffffffffffffffffffffffffffffffffff161415151561370157600080fd5b60011515600080846000191660001916815260200190815260200160002060010160008573ffffffffffffffffffffffffffffffffffffffff1673ffffffffffffffffffffffffffffffffffffffff16815260200190815260200160002060009054906101000a900460ff1615151415151561377c57600080fd5b6001600080846000191660001916815260200190815260200160002060020160008282829054906101000a900460ff160192506101000a81548160ff021916908360ff16021790555060008083600019166000191681526020019081526020016000206000018390806001815401808255809150509060018203906000526020600020016000909192909190916101000a81548173ffffffffffffffffffffffffffffffffffffffff021916908373ffffffffffffffffffffffffffffffffffffffff160217905550506001600080846000191660001916815260200190815260200160002060010160008573ffffffffffffffffffffffffffffffffffffffff1673ffffffffffffffffffffffffffffffffffffffff16815260200190815260200160002060006101000a81548160ff021916908315150217905550600080836000191660001916815260200190815260200160002060020160009054906101000a900460ff16905092915050565b600080600080600080866000191660001916815260200190815260200160002060020160006101000a81548160ff021916908360ff160217905550600091505b600080856000191660001916815260200190815260200160002060000180549050821015613a2b5760008085600019166000191681526020019081526020016000206000018281548110151561397e57fe5b9060005260206000200160009054906101000a900473ffffffffffffffffffffffffffffffffffffffff1690506000806000866000191660001916815260200190815260200160002060010160008373ffffffffffffffffffffffffffffffffffffffff1673ffffffffffffffffffffffffffffffffffffffff16815260200190815260200160002060006101000a81548160ff021916908315150217905550818060010192505061392c565b600192505050919050565b6040805190810160405280600681526020017f457363726f7700000000000000000000000000000000000000000000000000008152506040805190810160405280600581526020017f302e312e33000000000000000000000000000000000000000000000000000000815250613aac82826129f8565b151515613ab857600080fd5b600073ffffffffffffffffffffffffffffffffffffffff168473ffffffffffffffffffffffffffffffffffffffff1614158015613b225750600073ffffffffffffffffffffffffffffffffffffffff168373ffffffffffffffffffffffffffffffffffffffff1614155b1515613b2d57600080fd5b83600360006101000a81548173ffffffffffffffffffffffffffffffffffffffff021916908373ffffffffffffffffffffffffffffffffffffffff16021790555082600560006101000a81548173ffffffffffffffffffffffffffffffffffffffff021916908373ffffffffffffffffffffffffffffffffffffffff1602179055508273ffffffffffffffffffffffffffffffffffffffff168473ffffffffffffffffffffffffffffffffffffffff167f0a3c5299ff3c9081aca91f75b9d88d7e14be19d31ca64abbf9ad33bbe98fb32660405160405180910390a37fdd117a11c22118c9dee4b5a67ce578bc44529dce21ee0ccc439588fbb9fb4ea38282604051808060200180602001838103835285818151815260200191508051906020019080838360005b83811015613c70578082015181840152602081019050613c55565b50505050905090810190601f168015613c9d5780820380516001836020036101000a031916815260200191505b50838103825284818151815260200191508051906020019080838360005b83811015613cd6578082015181840152602081019050613cbb565b50505050905090810190601f168015613d035780820380516001836020036101000a031916815260200191505b5094505050505060405180910390a160016002836040518082805190602001908083835b602083101515613d4c5780518252602082019150602081019050602083039250613d27565b6001836020036101000a0380198251168184511680821785525050505050509050019150509081526020016040518091039020826040518082805190602001908083835b602083101515613db55780518252602082019150602081019050602083039250613d90565b6001836020036101000a038019825116818451168082178552505050505050905001915050908152602001604051809103902060006101000a81548160ff02191690831515021790555050505050565b613e82826001836040518082805190602001908083835b602083101515613e415780518252602082019150602081019050602083039250613e1c565b6001836020036101000a03801982511681845116808217855250505050505090500191505090815260200160405180910390206153bf90919063ffffffff16565b7fd211483f91fc6eff862467f8de606587a30c8fc9981056f051b897a418df803a8282604051808373ffffffffffffffffffffffffffffffffffffffff1673ffffffffffffffffffffffffffffffffffffffff16815260200180602001828103825283818151815260200191508051906020019080838360005b83811015613f17578082015181840152602081019050613efc565b50505050905090810190601f168015613f445780820380516001836020036101000a031916815260200191505b50935050505060405180910390a15050565b60008060008460000184815481101515613f6c57fe5b9060005260206000200160009054906101000a900473ffffffffffffffffffffffffffffffffffffffff169050808560010160008373ffffffffffffffffffffffffffffffffffffffff1673ffffffffffffffffffffffffffffffffffffffff16815260200190815260200160002060010160009054906101000a900460ff1692509250509250929050565b60008260010160008373ffffffffffffffffffffffffffffffffffffffff1673ffffffffffffffffffffffffffffffffffffffff16815260200190815260200160002060010160009054906101000a900460ff16905092915050565b6000808314156140675760009050614086565b818302905081838281151561407857fe5b0414151561408257fe5b8090505b92915050565b6000818381151561409957fe5b04905092915050565b600080600060028111156140b257fe5b6006600088815260200190815260200160002060040160009054906101000a900460ff1660028111156140e157fe5b1415156140ed57600080fd5b600085101580156140ff575060008310155b151561410a57600080fd5b6141458561413785600660008b81526020019081526020016000206007015461542090919063ffffffff16565b61542090919063ffffffff16565b60066000888152602001908152602001600020600301541015151561416957600080fd5b60026006600088815260200190815260200160002060040160006101000a81548160ff0219169083600281111561419c57fe5b0217905550436006600088815260200190815260200160002060060181905550600083111561432857600073ffffffffffffffffffffffffffffffffffffffff168473ffffffffffffffffffffffffffffffffffffffff161415151561420157600080fd5b8260066000888152602001908152602001600020600a0181905550600360009054906101000a900473ffffffffffffffffffffffffffffffffffffffff1673ffffffffffffffffffffffffffffffffffffffff1663a9059cbb85856040518363ffffffff167c0100000000000000000000000000000000000000000000000000000000028152600401808373ffffffffffffffffffffffffffffffffffffffff1673ffffffffffffffffffffffffffffffffffffffff16815260200182815260200192505050602060405180830381600087803b1580156142e157600080fd5b505af11580156142f5573d6000803e3d6000fd5b505050506040513d602081101561430b57600080fd5b8101908080519060200190929190505050151561432757600080fd5b5b600085111561448e57846006600088815260200190815260200160002060080181905550600360009054906101000a900473ffffffffffffffffffffffffffffffffffffffff1673ffffffffffffffffffffffffffffffffffffffff1663a9059cbb6006600089815260200190815260200160002060020160009054906101000a900473ffffffffffffffffffffffffffffffffffffffff16876040518363ffffffff167c0100000000000000000000000000000000000000000000000000000000028152600401808373ffffffffffffffffffffffffffffffffffffffff1673ffffffffffffffffffffffffffffffffffffffff16815260200182815260200192505050602060405180830381600087803b15801561444757600080fd5b505af115801561445b573d6000803e3d6000fd5b505050506040513d602081101561447157600080fd5b8101908080519060200190929190505050151561448d57600080fd5b5b6144c9856144bb85600660008b81526020019081526020016000206007015461542090919063ffffffff16565b61542090919063ffffffff16565b90506144f481600660008981526020019081526020016000206003015461543c90919063ffffffff16565b600660008881526020019081526020016000206009018190555060006006600088815260200190815260200160002060090154111561468557600360009054906101000a900473ffffffffffffffffffffffffffffffffffffffff1673ffffffffffffffffffffffffffffffffffffffff1663a9059cbb6006600089815260200190815260200160002060010160009054906101000a900473ffffffffffffffffffffffffffffffffffffffff16600660008a8152602001908152602001600020600901546040518363ffffffff167c0100000000000000000000000000000000000000000000000000000000028152600401808373ffffffffffffffffffffffffffffffffffffffff1673ffffffffffffffffffffffffffffffffffffffff16815260200182815260200192505050602060405180830381600087803b15801561463e57600080fd5b505af1158015614652573d6000803e3d6000fd5b505050506040513d602081101561466857600080fd5b8101908080519060200190929190505050151561468457600080fd5b5b8373ffffffffffffffffffffffffffffffffffffffff1686600560009054906101000a900473ffffffffffffffffffffffffffffffffffffffff1673ffffffffffffffffffffffffffffffffffffffff167f23157ee5a4e89bcebb1fc3e9b6e1533aefe88f9bde92308b49a71e800103542b8887604051808381526020018281526020019250505060405180910390a46001915050949350505050565b600080600281111561473057fe5b6006600084815260200190815260200160002060040160009054906101000a900460ff16600281111561475f57fe5b14151561476b57600080fd5b3373ffffffffffffffffffffffffffffffffffffffff166006600084815260200190815260200160002060020160009054906101000a900473ffffffffffffffffffffffffffffffffffffffff1673ffffffffffffffffffffffffffffffffffffffff161415156147db57600080fd5b61481a6006600084815260200190815260200160002060070154600660008581526020019081526020016000206003015461543c90919063ffffffff16565b600660008481526020019081526020016000206009018190555060026006600084815260200190815260200160002060040160006101000a81548160ff0219169083600281111561486757fe5b0217905550436006600084815260200190815260200160002060060181905550600360009054906101000a900473ffffffffffffffffffffffffffffffffffffffff1673ffffffffffffffffffffffffffffffffffffffff1663a9059cbb6006600085815260200190815260200160002060010160009054906101000a900473ffffffffffffffffffffffffffffffffffffffff1660066000868152602001908152602001600020600901546040518363ffffffff167c0100000000000000000000000000000000000000000000000000000000028152600401808373ffffffffffffffffffffffffffffffffffffffff1673ffffffffffffffffffffffffffffffffffffffff16815260200182815260200192505050602060405180830381600087803b15801561499857600080fd5b505af11580156149ac573d6000803e3d6000fd5b505050506040513d60208110156149c257600080fd5b810190808051906020019092919050505015156149de57600080fd5b81600560009054906101000a900473ffffffffffffffffffffffffffffffffffffffff1673ffffffffffffffffffffffffffffffffffffffff167f42a9d051cfad92ff80e72d1f2fe48fd37941d2e3d8a231b4a2a6993474dd672660405160405180910390a360019050919050565b614a578282611b22565b151515614a6357600080fd5b614ae0826001836040518082805190602001908083835b602083101515614a9f5780518252602082019150602081019050602083039250614a7a565b6001836020036101000a038019825116818451168082178552505050505050905001915050908152602001604051809103902061545590919063ffffffff16565b7fbfec83d64eaa953f2708271a023ab9ee82057f8f3578d548c1a4ba0b5b7004898282604051808373ffffffffffffffffffffffffffffffffffffffff1673ffffffffffffffffffffffffffffffffffffffff16815260200180602001828103825283818151815260200191508051906020019080838360005b83811015614b75578082015181840152602081019050614b5a565b50505050905090810190601f168015614ba25780820380516001836020036101000a031916815260200191505b50935050505060405180910390a15050565b6000806002811115614bc257fe5b6006600084815260200190815260200160002060040160009054906101000a900460ff166002811115614bf157fe5b141515614bfd57600080fd5b3373ffffffffffffffffffffffffffffffffffffffff166006600084815260200190815260200160002060010160009054906101000a900473ffffffffffffffffffffffffffffffffffffffff1673ffffffffffffffffffffffffffffffffffffffff16141515614c6d57600080fd5b60016006600084815260200190815260200160002060040160006101000a81548160ff02191690836002811115614ca057fe5b0217905550614ce46006600084815260200190815260200160002060070154600660008581526020019081526020016000206003015461543c90919063ffffffff16565b6006600084815260200190815260200160002060080181905550436006600084815260200190815260200160002060060181905550600360009054906101000a900473ffffffffffffffffffffffffffffffffffffffff1673ffffffffffffffffffffffffffffffffffffffff1663a9059cbb6006600085815260200190815260200160002060020160009054906101000a900473ffffffffffffffffffffffffffffffffffffffff1660066000868152602001908152602001600020600801546040518363ffffffff167c0100000000000000000000000000000000000000000000000000000000028152600401808373ffffffffffffffffffffffffffffffffffffffff1673ffffffffffffffffffffffffffffffffffffffff16815260200182815260200192505050602060405180830381600087803b158015614e2a57600080fd5b505af1158015614e3e573d6000803e3d6000fd5b505050506040513d6020811015614e5457600080fd5b81019080805190602001909291905050501515614e7057600080fd5b81600560009054906101000a900473ffffffffffffffffffffffffffffffffffffffff1673ffffffffffffffffffffffffffffffffffffffff167f4bebfffc0dc0fb54ffd42c8fe2424e8fe0c482f089c4d0d6e6f1ea5d9e34248a60405160405180910390a360019050919050565b600081600001805490509050919050565b60008060008073ffffffffffffffffffffffffffffffffffffffff168773ffffffffffffffffffffffffffffffffffffffff1614158015614f5e5750600073ffffffffffffffffffffffffffffffffffffffff168673ffffffffffffffffffffffffffffffffffffffff1614155b8015614f6a5750600085115b8015614f77575060008410155b1515614f8257600080fd5b600360009054906101000a900473ffffffffffffffffffffffffffffffffffffffff1673ffffffffffffffffffffffffffffffffffffffff166323b872dd8830886040518463ffffffff167c0100000000000000000000000000000000000000000000000000000000028152600401808473ffffffffffffffffffffffffffffffffffffffff1673ffffffffffffffffffffffffffffffffffffffff1681526020018373ffffffffffffffffffffffffffffffffffffffff1673ffffffffffffffffffffffffffffffffffffffff1681526020018281526020019350505050602060405180830381600087803b15801561507b57600080fd5b505af115801561508f573d6000803e3d6000fd5b505050506040513d60208110156150a557600080fd5b810190808051906020019092919050505015156150c157600080fd5b6004600081546001019190508190559150600660008381526020019081526020016000209050818160000181905550868160010160006101000a81548173ffffffffffffffffffffffffffffffffffffffff021916908373ffffffffffffffffffffffffffffffffffffffff160217905550858160020160006101000a81548173ffffffffffffffffffffffffffffffffffffffff021916908373ffffffffffffffffffffffffffffffffffffffff16021790555084816003018190555043816005018190555060008160040160006101000a81548160ff021916908360028111156151a957fe5b02179055506000816008018190555060008160090181905550600081600a0181905550600084111561530c57838160070181905550600360009054906101000a900473ffffffffffffffffffffffffffffffffffffffff1673ffffffffffffffffffffffffffffffffffffffff1663a9059cbb600560009054906101000a900473ffffffffffffffffffffffffffffffffffffffff16866040518363ffffffff167c0100000000000000000000000000000000000000000000000000000000028152600401808373ffffffffffffffffffffffffffffffffffffffff1673ffffffffffffffffffffffffffffffffffffffff16815260200182815260200192505050602060405180830381600087803b1580156152c557600080fd5b505af11580156152d9573d6000803e3d6000fd5b505050506040513d60208110156152ef57600080fd5b8101908080519060200190929190505050151561530b57600080fd5b5b8573ffffffffffffffffffffffffffffffffffffffff168773ffffffffffffffffffffffffffffffffffffffff16600560009054906101000a900473ffffffffffffffffffffffffffffffffffffffff1673ffffffffffffffffffffffffffffffffffffffff167f2deff110fb90284ba1ebd12f5a2a449109b5327e5144dcf39bae0fa2fcfa7afb8888604051808381526020018281526020019250505060405180910390a48192505050949350505050565b60008260010160008373ffffffffffffffffffffffffffffffffffffffff1673ffffffffffffffffffffffffffffffffffffffff16815260200190815260200160002060010160006101000a81548160ff0219169083151502179055505050565b6000818301905082811015151561543357fe5b80905092915050565b600082821115151561544a57fe5b818303905092915050565b816000018190806001815401808255809150509060018203906000526020600020016000909192909190916101000a81548173ffffffffffffffffffffffffffffffffffffffff021916908373ffffffffffffffffffffffffffffffffffffffff1602179055505060018260000180549050038260010160008373ffffffffffffffffffffffffffffffffffffffff1673ffffffffffffffffffffffffffffffffffffffff1681526020019081526020016000206000018190555060018260010160008373ffffffffffffffffffffffffffffffffffffffff1673ffffffffffffffffffffffffffffffffffffffff16815260200190815260200160002060010160006101000a81548160ff02191690831515021790555050505600a165627a7a723058205a8e562f37abcc6a74caeb5b7d91295bf279cb8a49f7973ade2224aa6eabc5a90029",
  "source": "pragma solidity 0.4.24;\n\nimport \"./Debugable.sol\";\nimport \"./Escrow.sol\";\nimport \"./CanWorkAdmin.sol\";\n\n\ncontract CanWorkJob is Debugable, Escrow, CanWorkAdmin {\n    \n    using SafeMath for uint256;\n\n    enum JobStatus {\n        New,\n        Completed,\n        Cancelled\n    }\n\n    struct Job {\n      bytes32 id;\n      address client;\n      address provider;\n      uint256 escrowId;\n      JobStatus status;\n      uint256 amount;\n    }\n\n    mapping(bytes32 => Job) internal jobs;\n    address dApp;\n\n    event OnCreateJob(address indexed dapp, bytes32 indexed jobId, address client, address indexed provider, uint256 totalCosts);\n    event OnCompleteJob(address indexed dapp, bytes32 indexed jobId);\n    event OnCancelJobByProvider(address indexed dapp, bytes32 indexed jobId);\n    event OnCancelJobByAdmin(address indexed dapp, bytes32 indexed jobId, uint256 payToProviderAmount, address indexed arbiter, uint256 payToArbiterAmount);\n\n    function initialize(ERC20 _token, address _dApp, address _owner1, address _owner2, address _owner3) \n    public \n    isInitializer(\"CanWorkJob\", \"0.1.3\") {\n        require(_token != address(0) && _dApp != address(0) && _owner1 != address(0) && _owner2 != address(0) && _owner3 != address(0));\n        \n        dApp = _dApp;\n        \n        Escrow.initialize(_token, _dApp);\n        CanWorkAdmin.initialize(_token, _owner1, _owner2, _owner3);\n    }\n\n    function createJob(bytes32 _jobId, address _client, address _provider, uint256 _totalCosts) \n    public \n    returns (bool) {\n        require(_jobId[0] != 0);\n        require(jobs[_jobId].id[0] == 0);\n\n        uint256 payToDappAmount = _totalCosts.mul(CANWORK_PAYMENT_PERCENTAGE).div(100);\n\n        jobs[_jobId].id = _jobId;\n        jobs[_jobId].client = _client;\n        jobs[_jobId].provider = _provider;\n        jobs[_jobId].status = JobStatus.New;\n        jobs[_jobId].amount = _totalCosts;\n        jobs[_jobId].escrowId = createEscrow(_client, _provider, _totalCosts, payToDappAmount);\n\n        emit OnCreateJob(dApp, _jobId, _client, _provider, _totalCosts);\n\n        return true;\n    }\n\n    function completeJob(bytes32 _jobId) \n    public \n    returns (bool) {  \n        require(_jobId[0] != 0);\n        require(jobs[_jobId].status == JobStatus.New);\n        require(jobs[_jobId].client == msg.sender);   \n        \n        require(completeEscrow(jobs[_jobId].escrowId));\n        \n        jobs[_jobId].status = JobStatus.Completed;\n\n        emit OnCompleteJob(dApp, _jobId);\n\n        return true;\n    }\n\n    function cancelJobByProvider(bytes32 _jobId) \n    public \n    returns (bool) {\n        require(_jobId[0] != 0);  \n        require(jobs[_jobId].status == JobStatus.New);\n        require(jobs[_jobId].provider == msg.sender);\n        \n        require(cancelEscrowByProvider(jobs[_jobId].escrowId));\n        \n        jobs[_jobId].status = JobStatus.Cancelled;\n\n        emit OnCancelJobByProvider(dApp, _jobId);\n\n        return true;\n    }\n\n    function cancelJobByAdmin(bytes32 _jobId, uint256 _payToProviderAmount, address _arbiter, uint256 _payToArbiterAmount) \n    public \n    onlyRole(ROLE_ADMIN)\n    returns (bool) {\n        require(_jobId[0] != 0);  \n        require(jobs[_jobId].status == JobStatus.New);\n        \n        uint maxArbiterPayment = jobs[_jobId].amount.mul(5).div(100);\n\n        require(_payToArbiterAmount <= maxArbiterPayment);        \n        \n        require(cancelEscrow(jobs[_jobId].escrowId, _payToProviderAmount, _arbiter, _payToArbiterAmount));\n\n        jobs[_jobId].status = JobStatus.Cancelled;\n\n        emit OnCancelJobByAdmin(dApp, _jobId, _payToProviderAmount, _arbiter, _payToArbiterAmount);\n\n        return true;\n    }\n\n    function getJob(bytes32 _jobId) \n    public \n    view \n    returns (\n      address client, \n      address provider,\n      uint256 amount,\n      uint8 status, \n      uint256 createdAt, \n      uint256 closedAt, \n      uint256 paidToProviderAmount\n      ) {\n      require(_jobId[0] != 0); \n      require(jobs[_jobId].id[0] != 0);\n\n      return getEscrow(jobs[_jobId].escrowId);\n    }\n\n    function getJobPayments(bytes32 _jobId) \n    public \n    view \n    returns (\n      uint8 status,\n      uint256 amount,     \n      uint256 paidToDappAmount,\n      uint256 paidToProviderAmount,\n      uint256 paidToClientAmount,\n      uint256 paidToArbiterAmount\n      ) {\n      require(_jobId[0] != 0); \n      require(jobs[_jobId].id[0] != 0);\n\n      return getEscrowPayments(jobs[_jobId].escrowId);\n    }\n}",
  "sourcePath": "/Users/GustavoIbarra/Projects/Solidity/can-work-contracts/contracts/CanWorkJob.sol",
  "compiler": {
    "name": "solc",
    "version": "0.4.24+commit.e67f0147.Emscripten.clang"
  },
  "schemaVersion": "2.0.1",
  "updatedAt": "2018-07-18T23:40:41.119Z"
}