{
  "contractName": "ERC20BancorPriceOracle",
  "abi": [
    {
      "constant": true,
      "inputs": [],
      "name": "MyERC20Token",
      "outputs": [
        {
          "name": "",
          "type": "address"
        }
      ],
      "payable": false,
      "stateMutability": "view",
      "type": "function"
    },
    {
      "constant": true,
      "inputs": [],
      "name": "OracleBase",
      "outputs": [
        {
          "name": "",
          "type": "address"
        }
      ],
      "payable": false,
      "stateMutability": "view",
      "type": "function"
    },
    {
      "constant": false,
      "inputs": [],
      "name": "acceptOwnership",
      "outputs": [],
      "payable": false,
      "stateMutability": "nonpayable",
      "type": "function"
    },
    {
      "constant": true,
      "inputs": [],
      "name": "owner",
      "outputs": [
        {
          "name": "",
          "type": "address"
        }
      ],
      "payable": false,
      "stateMutability": "view",
      "type": "function"
    },
    {
      "constant": true,
      "inputs": [],
      "name": "newOwner",
      "outputs": [
        {
          "name": "",
          "type": "address"
        }
      ],
      "payable": false,
      "stateMutability": "view",
      "type": "function"
    },
    {
      "constant": true,
      "inputs": [],
      "name": "MyTokenConverter",
      "outputs": [
        {
          "name": "",
          "type": "address"
        }
      ],
      "payable": false,
      "stateMutability": "view",
      "type": "function"
    },
    {
      "constant": false,
      "inputs": [
        {
          "name": "_newOwner",
          "type": "address"
        }
      ],
      "name": "transferOwnership",
      "outputs": [],
      "payable": false,
      "stateMutability": "nonpayable",
      "type": "function"
    },
    {
      "inputs": [
        {
          "name": "_myERC20Token",
          "type": "address"
        },
        {
          "name": "_myTokenConverter",
          "type": "address"
        },
        {
          "name": "_oracleBase",
          "type": "address"
        }
      ],
      "payable": false,
      "stateMutability": "nonpayable",
      "type": "constructor"
    },
    {
      "anonymous": false,
      "inputs": [
        {
          "indexed": true,
          "name": "_prevOwner",
          "type": "address"
        },
        {
          "indexed": true,
          "name": "_newOwner",
          "type": "address"
        }
      ],
      "name": "OwnerUpdate",
      "type": "event"
    },
    {
      "constant": true,
      "inputs": [
        {
          "name": "_tokenAmount",
          "type": "uint256"
        }
      ],
      "name": "getTokenToDai",
      "outputs": [
        {
          "name": "",
          "type": "uint256"
        }
      ],
      "payable": false,
      "stateMutability": "view",
      "type": "function"
    },
    {
      "constant": true,
      "inputs": [
        {
          "name": "_daiAmount",
          "type": "uint256"
        }
      ],
      "name": "getDaiToToken",
      "outputs": [
        {
          "name": "",
          "type": "uint256"
        }
      ],
      "payable": false,
      "stateMutability": "view",
      "type": "function"
    },
    {
      "constant": false,
      "inputs": [
        {
          "name": "_myToken",
          "type": "address"
        }
      ],
      "name": "updateMyTokenAddress",
      "outputs": [],
      "payable": false,
      "stateMutability": "nonpayable",
      "type": "function"
    },
    {
      "constant": false,
      "inputs": [
        {
          "name": "_tokenConverter",
          "type": "address"
        }
      ],
      "name": "updateTokenConverterAddress",
      "outputs": [],
      "payable": false,
      "stateMutability": "nonpayable",
      "type": "function"
    },
    {
      "constant": false,
      "inputs": [
        {
          "name": "_oracleBase",
          "type": "address"
        }
      ],
      "name": "updateOracleBaseAddress",
      "outputs": [],
      "payable": false,
      "stateMutability": "nonpayable",
      "type": "function"
    }
  ],
  "bytecode": "0x608060405234801561001057600080fd5b50604051606080610cbd83398101604090815281516020830151919092015160008054600160a060020a03191633179055600160a060020a038316158015906100615750600160a060020a03821615155b80156100755750600160a060020a03811615155b15156100e257604080517f08c379a000000000000000000000000000000000000000000000000000000000815260206004820152601c60248201527f4d75737420636f6e7461696e2076616c69642061646472657373657300000000604482015290519081900360640190fd5b60028054600160a060020a03948516600160a060020a031991821617909155600380549385169382169390931790925560048054919093169116179055610b8f8061012e6000396000f3006080604052600436106100a05763ffffffff60e060020a6000350416631c33933181146100a557806324d9cf9b146100c85780634c95cb98146100f957806379ba50971461010e5780638da5cb5b146101235780638daa3d76146101385780639fd650ce14610159578063b604809514610183578063c8a1d96e146101a4578063d4ee1d90146101bc578063ddf2b5e6146101d1578063f2fde38b146101e6575b600080fd5b3480156100b157600080fd5b506100c6600160a060020a0360043516610207565b005b3480156100d457600080fd5b506100dd6102dd565b60408051600160a060020a039092168252519081900360200190f35b34801561010557600080fd5b506100dd6102ec565b34801561011a57600080fd5b506100c66102fb565b34801561012f57600080fd5b506100dd610383565b34801561014457600080fd5b506100c6600160a060020a0360043516610392565b34801561016557600080fd5b50610171600435610468565b60408051918252519081900360200190f35b34801561018f57600080fd5b506100c6600160a060020a03600435166106d7565b3480156101b057600080fd5b506101716004356107ad565b3480156101c857600080fd5b506100dd610aa3565b3480156101dd57600080fd5b506100dd610ab2565b3480156101f257600080fd5b506100c6600160a060020a0360043516610ac1565b600054600160a060020a0316331461021b57fe5b600160a060020a038116158015906102415750600254600160a060020a03828116911614155b15156102ae57604080517f08c379a000000000000000000000000000000000000000000000000000000000815260206004820152601c60248201527f4d7573742062652061206e65772c2076616c6964206164647265737300000000604482015290519081900360640190fd5b6002805473ffffffffffffffffffffffffffffffffffffffff1916600160a060020a0392909216919091179055565b600254600160a060020a031681565b600454600160a060020a031681565b600154600160a060020a0316331461031257600080fd5b60015460008054604051600160a060020a0393841693909116917f343765429aea5a34b3ff6a3785a98a5abb2597aca87bfbb58632c173d585373a91a3600180546000805473ffffffffffffffffffffffffffffffffffffffff19908116600160a060020a03841617909155169055565b600054600160a060020a031681565b600054600160a060020a031633146103a657fe5b600160a060020a038116158015906103cc5750600354600160a060020a03828116911614155b151561043957604080517f08c379a000000000000000000000000000000000000000000000000000000000815260206004820152601c60248201527f4d7573742062652061206e65772c2076616c6964206164647265737300000000604482015290519081900360640190fd5b6003805473ffffffffffffffffffffffffffffffffffffffff1916600160a060020a0392909216919091179055565b600080600080600260009054906101000a9004600160a060020a0316600160a060020a031663313ce5676040518163ffffffff1660e060020a028152600401602060405180830381600087803b1580156104c157600080fd5b505af11580156104d5573d6000803e3d6000fd5b505050506040513d60208110156104eb57600080fd5b505160035460025460048054604080517f4e60860e000000000000000000000000000000000000000000000000000000008152905160ff9096169850600160a060020a0394851695631e1401f8959485169490921692634e60860e9282820192602092908290030181600087803b15801561056557600080fd5b505af1158015610579573d6000803e3d6000fd5b505050506040513d602081101561058f57600080fd5b50516040805160e060020a63ffffffff8616028152600160a060020a039384166004820152929091166024830152600a87900a60448301525160648083019260209291908290030181600087803b1580156105e957600080fd5b505af11580156105fd573d6000803e3d6000fd5b505050506040513d602081101561061357600080fd5b5051915061063b600a84900a61062f848863ffffffff610b1f16565b9063ffffffff610b4e16565b60048054604080517ff82b817800000000000000000000000000000000000000000000000000000000815292830184905251929350600160a060020a03169163f82b8178916024808201926020929091908290030181600087803b1580156106a257600080fd5b505af11580156106b6573d6000803e3d6000fd5b505050506040513d60208110156106cc57600080fd5b505195945050505050565b600054600160a060020a031633146106eb57fe5b600160a060020a038116158015906107115750600454600160a060020a03828116911614155b151561077e57604080517f08c379a000000000000000000000000000000000000000000000000000000000815260206004820152601c60248201527f4d7573742062652061206e65772c2076616c6964206164647265737300000000604482015290519081900360640190fd5b6004805473ffffffffffffffffffffffffffffffffffffffff1916600160a060020a0392909216919091179055565b60048054604080517f336f0bef00000000000000000000000000000000000000000000000000000000815292830184905251600092839283928392600160a060020a039092169163336f0bef91602480830192602092919082900301818787803b15801561081a57600080fd5b505af115801561082e573d6000803e3d6000fd5b505050506040513d602081101561084457600080fd5b505160048054604080517f4e60860e0000000000000000000000000000000000000000000000000000000081529051939650600160a060020a0390911692634e60860e928281019260209291908290030181600087803b1580156108a757600080fd5b505af11580156108bb573d6000803e3d6000fd5b505050506040513d60208110156108d157600080fd5b5051604080517f313ce5670000000000000000000000000000000000000000000000000000000081529051600160a060020a039092169163313ce567916004808201926020929091908290030181600087803b15801561093057600080fd5b505af1158015610944573d6000803e3d6000fd5b505050506040513d602081101561095a57600080fd5b505160035460048054604080517f4e60860e000000000000000000000000000000000000000000000000000000008152905160ff9095169650600160a060020a0393841694631e1401f89490921692634e60860e9282820192602092908290030181600087803b1580156109cd57600080fd5b505af11580156109e1573d6000803e3d6000fd5b505050506040513d60208110156109f757600080fd5b50516002546040805160e060020a63ffffffff8616028152600160a060020a039384166004820152929091166024830152600a86900a60448301525160648083019260209291908290030181600087803b158015610a5457600080fd5b505af1158015610a68573d6000803e3d6000fd5b505050506040513d6020811015610a7e57600080fd5b50519050610a9a600a83900a61062f838663ffffffff610b1f16565b95945050505050565b600154600160a060020a031681565b600354600160a060020a031681565b600054600160a060020a03163314610ad557fe5b600054600160a060020a0382811691161415610af057600080fd5b6001805473ffffffffffffffffffffffffffffffffffffffff1916600160a060020a0392909216919091179055565b6000821515610b3057506000610b48565b50818102818382811515610b4057fe5b0414610b4857fe5b92915050565b60008183811515610b5b57fe5b0493925050505600a165627a7a723058207ab9d1d2ef7bd4f3a9c0dd8f897663877389d799915723d97df9e22b4e9de8cb0029",
  "source": "pragma solidity ^0.4.23;\n\n\n/**\n * @title SafeMath\n * @dev Math operations with safety checks that throw on error\n */\nlibrary SafeMath {\n\n  /**\n  * @dev Multiplies two numbers, throws on overflow.\n  */\n  function mul(uint256 a, uint256 b) internal pure returns (uint256 c) {\n    if (a == 0) {\n      return 0;\n    }\n    c = a * b;\n    assert(c / a == b);\n    return c;\n  }\n\n  /**\n  * @dev Integer division of two numbers, truncating the quotient.\n  */\n  function div(uint256 a, uint256 b) internal pure returns (uint256) {\n    // assert(b > 0); // Solidity automatically throws when dividing by 0\n    // uint256 c = a / b;\n    // assert(a == b * c + a % b); // There is no case in which this doesn't hold\n    return a / b;\n  }\n\n  /**\n  * @dev Subtracts two numbers, throws on overflow (i.e. if subtrahend is greater than minuend).\n  */\n  function sub(uint256 a, uint256 b) internal pure returns (uint256) {\n    assert(b <= a);\n    return a - b;\n  }\n\n  /**\n  * @dev Adds two numbers, throws on overflow.\n  */\n  function add(uint256 a, uint256 b) internal pure returns (uint256 c) {\n    c = a + b;\n    assert(c >= a);\n    return c;\n  }\n}\n\n\n/*\n    Owned contract interface\n*/\ncontract IOwned {\n    // this function isn't abstract since the compiler emits automatically generated getter functions as external\n    function owner() public view returns (address) {}\n\n    function transferOwnership(address _newOwner) public;\n    function acceptOwnership() public;\n}\n\n\n/*\n    Provides support and utilities for contract ownership\n*/\ncontract Owned is IOwned {\n    address public owner;\n    address public newOwner;\n\n    event OwnerUpdate(address indexed _prevOwner, address indexed _newOwner);\n\n    /**\n        @dev constructor\n    */\n    function Owned() public {\n        owner = msg.sender;\n    }\n\n    // allows execution by the owner only\n    modifier ownerOnly {\n        assert(msg.sender == owner);\n        _;\n    }\n\n    /**\n        @dev allows transferring the contract ownership\n        the new owner still needs to accept the transfer\n        can only be called by the contract owner\n\n        @param _newOwner    new contract owner\n    */\n    function transferOwnership(address _newOwner) public ownerOnly {\n        require(_newOwner != owner);\n        newOwner = _newOwner;\n    }\n\n    /**\n        @dev used by a new owner to accept an ownership transfer\n    */\n    function acceptOwnership() public {\n        require(msg.sender == newOwner);\n        emit OwnerUpdate(owner, newOwner);\n        owner = newOwner;\n        newOwner = address(0);\n    }\n}\n\n\n/*\n    ERC20 Standard Token interface\n*/\ncontract IERC20Token {\n    // these functions aren't abstract since the compiler emits automatically generated getter functions as external\n    function name() public view returns (string) {}\n    function symbol() public view returns (string) {}\n    function decimals() public view returns (uint8) {}\n    function totalSupply() public view returns (uint256) {}\n    function balanceOf(address _owner) public view returns (uint256) { _owner; }\n    function allowance(address _owner, address _spender) public view returns (uint256) { _owner; _spender; }\n\n    function transfer(address _to, uint256 _value) public returns (bool success);\n    function transferFrom(address _from, address _to, uint256 _value) public returns (bool success);\n    function approve(address _spender, uint256 _value) public returns (bool success);\n}\n\n/*\n    Interface to interact with deployed BancorConverter contract\n*/\ninterface BancorConverter {\n    function getReturn(IERC20Token _fromToken, IERC20Token _toToken, uint256 _amount) external view returns (uint256);\n}\n\n/**\n * @title Base ERC20 Bancor Price Oracle interface\n */\ncontract ERC20BancorPriceOracleBase {\n    IERC20Token public BNT; \n    function getBNTDAIConversion(uint256 _amountBNT) public view returns (uint256);\n    function getDAIBNTConversion(uint256 _amountDAI) public view returns (uint256);\n}\n\n/**\n * @title ERC20 Bancor Price Oracle\n * @author Alex Scott (@alsco77) (CanYa)\n * @dev Used to get current conversion rates from ERC20 tokens on the Bancor network to DAI (stablecoin)\n * or BNT. Can be used as a trusted on chain price oracle for your token.\n */\ncontract ERC20BancorPriceOracle is Owned {\n\n    using SafeMath for uint256;\n\n    IERC20Token public MyERC20Token;\n    BancorConverter public MyTokenConverter;\n    ERC20BancorPriceOracleBase public OracleBase;\n\n    /** \n      * @dev Contructor\n      * @param _myERC20Token Address of your token \n      * @param _myTokenConverter Address of the BancorConverter contract for your token\n      * @param _oracleBase Address of the oracle base containing BNT to DAI conversion\n      */\n    constructor(address _myERC20Token, address _myTokenConverter, address _oracleBase) {\n        require(address(0) != _myERC20Token && address(0) != _myTokenConverter && address(0) != _oracleBase, \"Must contain valid addresses\");\n        MyERC20Token = IERC20Token(_myERC20Token);\n        MyTokenConverter = BancorConverter(_myTokenConverter);\n        OracleBase = ERC20BancorPriceOracleBase(_oracleBase);\n    }\n\n    /** \n      * @dev Get DAI value of Token (How much USD are these tokens worth)\n      * @param _tokenAmount Amount of your token to convert, (amount * 10**decimals)\n      * @return Value of tokens in DAI\n      */\n    function getTokenToDai(uint256 _tokenAmount) external view returns (uint256) {\n        uint256 decimals = MyERC20Token.decimals();\n        uint256 valueOfOneToken = MyTokenConverter.getReturn(MyERC20Token, OracleBase.BNT(), 10 ** decimals);\n        uint256 tokenValueInBNT = valueOfOneToken.mul(_tokenAmount).div(10 ** decimals);\n        return OracleBase.getBNTDAIConversion(tokenValueInBNT);\n    }\n\n    /** \n      * @dev Get conversion rate of DAI to your tokens (How many tokens can I get with this USD)\n      * @param _daiAmount Dai amount, remember (amount) * 10**18\n      * @return Number of tokens\n      */\n    function getDaiToToken(uint256 _daiAmount) external view returns (uint256) {\n        uint bntValueOfDai = OracleBase.getDAIBNTConversion(_daiAmount);\n        uint256 decimals = OracleBase.BNT().decimals();\n        uint256 valueOfOneBNT = MyTokenConverter.getReturn(OracleBase.BNT(), MyERC20Token, 10 ** decimals);\n        return valueOfOneBNT.mul(bntValueOfDai).div(10 ** decimals);\n    }\n\n    /** \n      * @dev Update the address of my erc20 token\n      * @param _myToken Address\n      */\n    function updateMyTokenAddress(address _myToken) external\n    ownerOnly {\n        require(address(0) != _myToken && _myToken != address(MyERC20Token), \"Must be a new, valid address\");\n        MyERC20Token = IERC20Token(_myToken);\n    }\n\n    /** \n      * @dev Update the address of eth-bnt converter\n      * @param _tokenConverter Address\n      */\n    function updateTokenConverterAddress(address _tokenConverter) external\n    ownerOnly {\n        require(address(0) != _tokenConverter && _tokenConverter != address(MyTokenConverter), \"Must be a new, valid address\");\n        MyTokenConverter = BancorConverter(_tokenConverter);\n    }\n\n    /** \n      * @dev Update the address of oracle base contract\n      * @param _oracleBase Address\n      */\n    function updateOracleBaseAddress(address _oracleBase) external\n    ownerOnly {\n        require(address(0) != _oracleBase && _oracleBase != address(OracleBase), \"Must be a new, valid address\");\n        OracleBase = ERC20BancorPriceOracleBase(_oracleBase);\n    }\n}\n\n",
  "sourcePath": "/home/alex/projects/canya-contracts-price-oracle/contracts/ERC20BancorPriceOracle.sol",
  "compiler": {
    "name": "solc",
    "version": "0.4.24+commit.e67f0147.Emscripten.clang"
  },
  "schemaVersion": "2.0.1",
  "updatedAt": "2018-08-28T02:16:22.035Z"
}